:040000006F20C07835
:10000400000000000000000090000020460B0020CB
:10001400A9BDF9F3900000200000000000000000DA
:10002400900000209000002000000000000000006C
:10003400C245000000000000900000200000000005
:1000440090000020900000209000002090000020EC
:1000540090000020900000209000002090000020DC
:10006400900000209000002090000020500C002000
:100074003A0C002090000020900000209000002006
:1000840090000020900000209000002090000020AC
:1000940001A04111B7170040985F3AC6945F3247F8
:1000A400E39CE6FE324541018280411181460146CE
:1000B4008145114506C6EF005051B727004011474E
:1000C4002383E780B7F700E003A707D16D9B23A83C
:1000D400E7D003A707D15D9B23A8E7D07300501096
:1000E40001000100B2404101828041118146014674
:1000F4008145114506C6EF00504DB7270040114712
:100104002383E780B717004003C7E70203C6E70469
:1001140083D7870391661377F70F1366360063E579
:10012400D700719B13671700F3260080A18A938779
:10013400018689CAF326008023A0D1869443DD9AE0
:10014400739006800F100000B716004093057005E9
:100154002380B604930580FA2380B6040F100000B0
:100164002382060223800604F32500809443A18A97
:10017400CD8E7390068023A001860F100000F32615
:100184000080A18A89CAF326008023A0D1869443E3
:10019400DD9A739006800F100000B7160040930597
:1001A40070052380B604930580FA2380B6040F10EB
:1001B40000002387E6022387C60423800604F3266F
:1001C40000809843218B558F7310078023A00186EC
:1001D4000F10000073270080218B09CB7327008048
:1001E40023A0E18698435D9B731007800F100000E5
:1001F40037170040930670052300D704930680FA4E
:100204002300D7040F1000008346B70493E60602C8
:10021400A305D70423000704F32600809843218B09
:10022400558F7310078023A001860F10000037F745
:1002340000E0832607D193E646002328D7D08326FF
:1002440007D1DD9A2328D7D0730050100100010094
:1002540073270080218B09CB7327008023A0E186BC
:1002640098435D9B731007800F1000003717004000
:10027400930670052300D704930680FA2300D7045D
:100284000F1000008346B70493F6F60DA305D704B8
:1002940023000704732700809C43A18BD98F73909C
:1002A400078023A001860F100000B2404101828024
:1002B4000111B7F5070026CA8146AA840A86E1051A
:1002C400194506CE22CC4AC802C023120100EF0011
:1002D400D02FB717004003C7E70413673700F3278D
:1002E4000080A18B1384018689CBF327008023A08F
:1002F400F1861C40DD9B739007800F100000B71738
:100304000040930670052380D704930680FA238067
:10031400D7040F1000002382070223800704F3266A
:1003240000801C40A18BD58F7390078023A0018689
:100334000F100000F3270080A18B89CBF3270080E6
:1003440023A0F1861C40DD9B739007800F100000F2
:10035400B7170040930670052380D704930680FAEC
:100364002380D7040F1000002387E70423800704A9
:10037400F32600801840218B558F7310078023A02B
:1003840001860F100000B7F600E003A706D113673B
:10039400470023A8E6D003D50702E5779107137534
:1003A4000560458D5D8D420541810100F327008084
:1003B400A18B89CBF327008023A0F1861C40DD9B11
:1003C400739007800F100000B717004013077005E3
:1003D4002380E704130780FA2380E7040F1000004A
:1003E40003C7F70013670704A387E70003C7B7042D
:1003F40013670702A385E7042390A7022380070459
:10040400732700801C40A18BD98F7390078023A091
:1004140001860F100000B7F4070037F900E0E1048B
:10042400832709D1DD9B2328F9D0730050100100E4
:1004340001001305C012EF00E07C81463000A68560
:10044400194502C423160100EF00301822478247E1
:10045400E318F7FCF3270080A18B89CBF3270080F6
:1004640023A0F1861C40DD9B739007800F100000D1
:10047400B7170040130770052380E704130780FAB9
:100484002380E7040F10000003D7070246074583C3
:100494002390E70223800704732700801C40A18B6C
:1004A400D98F7390078023A001860F100000F327D3
:1004B4000080A18B89CBF327008023A0F1861C4008
:1004C400DD9B739007800F100000B71700401307DF
:1004D40070052380E704130780FA2380E7040F10D4
:1004E400000003C7B7041377F70DA385E70423803F
:1004F4000704732700801C40A18BD98F7390078059
:1005040023A001860F1000005145ED2DF2406244F6
:10051400D244424905618280411126C28146014686
:10052400AA848145114506C622C4EF00100A371774
:1005340000408347E7028346E704035787031166B5
:1005440093F7F70F93E636006365C700F19B93E7D3
:10055400170073270080218B1384018609CB73272E
:10056400008023A0E18618405D9B731007800F1064
:10057400000037170040130670052300C704130654
:1005840080FA2300C7040F1000002302070223008F
:100594000704732600801840218B518F7310078045
:1005A40023A001860F10000073270080218B09CB44
:1005B4007327008023A0E18618405D9B7310078099
:1005C4000F10000037170040130670052300C704FE
:1005D400130680FA2300C7040F1000002307F70254
:1005E4002307D70423000704732700801C40A18B32
:1005F400D98F7390078023A001860F100000130584
:100604005002B12237F700E0832707D193E7470070
:100614002328F7D0F3270080A18B89CBF327008010
:1006240023A0F1861C40DD9B739007800F1000000F
:10063400B7170040130770052380E704130780FAF7
:100644002380E7040F10000003C7F70013670704B3
:10065400A387E70023800704732700801C40A18B35
:10066400D98F7390078023A001860F100000F32711
:100674000080A18B89CBF327008023A0F1861C4046
:10068400DD9B739007800F100000B717004013071D
:1006940070052380E704130780FA2380E7040F1012
:1006A40000002567D98C23909702238007047327C1
:1006B40000801C40A18BD98F7390078023A00186F2
:1006C4000F10000037F700E0832707D1DD9B2328B4
:1006D400F7D07300501001000100814601468145A6
:1006E4001145E525F3270080A18B89CBF3270080F2
:1006F40023A0F1861C40DD9B739007800F1000003F
:10070400B7170040130770052380E704130780FA26
:100714002380E7040F1000007D572396E70203C7E8
:100724006704136717002383E704238007047327F0
:1007340000801C40A18BD98F7390078023A0018671
:100744000F100000B240224492444101828073277A
:100754000080218B9387018609CB7327008023A017
:10076400E18698435D9B731007800F1000003717D4
:100774000040930670052300D704930680FA2300F3
:10078400D7040F1000008346B70493F6F60DA305B3
:10079400D70423000704732600809443A18AD18ED2
:1007A4007390068023A001860F1000009376050243
:1007B400638406180347A700118B25E7732700807D
:1007C400218B09CB7327008023A0E18698435D9B8E
:1007D400731007800F100000371700409306700550
:1007E4002300D704930680FA2300D7040F100000D7
:1007F4008346A70093E646002305D7002300070499
:10080400F32600809843218B558F7310078023A013
:1008140001860F1000001307004B010001007D1733
:100824006DFF73270080218B09CB7327008023A0E1
:10083400E18698435D9B731007800F100000371703
:100844000040930670052300D704930680FA230022
:10085400D7040F1000007D892314A70001000100B4
:100864000100010023000704F32600809843218B34
:10087400558F7310078023A001860F100000732783
:100884000080218B09CB7327008023A0E186984345
:100894005D9B731007800F1000003717004093060C
:1008A40070052300D704930680FA2300D7040F10A1
:1008B40000000F100000B726004013061005A383A4
:1008C400C68023000704F32600809843218B558FAC
:1008D4007310078023A001860F1000007327008087
:1008E400218B09CB7327008023A0E18698435D9B6D
:1008F400731007800F10000037170040930670052F
:100904002300D704930680FA2300D7040F100000B5
:100914008346B70493E60608A305D7042300070417
:10092400732700809C43A18BD98F7390078023A0E9
:1009340001860F100000828093760504638B0614F1
:100944000347A700418B25E773270080218B09CB40
:100954007327008023A0E18698435D9B7310078072
:100964000F10000037170040930670052300D704CA
:10097400930680FA2300D7040F1000008346A700D3
:1009840093E606012305D70023000704F32600801D
:100994009843218B558F7310078023A001860F1075
:1009A40000001307007D010001007D176DFF732710
:1009B4000080218B09CB7327008023A0E186984314
:1009C4005D9B731007800F100000371700409306DB
:1009D40070052300D704930680FA2300D7040F1070
:1009E40000009376F50193E606042314D700010072
:1009F40001000100010023000704F326008098434E
:100A0400218B558F7310078023A001860F100000DF
:100A1400130760046310E50473270080218B09CB5E
:100A24007327008023A0E18698435D9B73100780A1
:100A34000F10000037170040930670052300D704F9
:100A4400930680FA2300D7040F100000B726004055
:100A54000946B5B573270080218B09CB7327008025
:100A640023A0E18698435D9B731007800F1000005C
:100A740037170040930670052300D704930680FAC5
:100A84002300D7040F100000B726004013062005EA
:100A94003DB573270080218B09CB7327008023A0E9
:100AA400E18698435D9B731007800F100000371791
:100AB4000040930670052300D704930680FA2300B0
:100AC400D7040F1000008356870093E6060C231406
:100AD400D700C5BB4111814601468145114506C673
:100AE400ED24F3270080A18B9386018689CBF3271D
:100AF400008023A0F1869C42DD9B739007800F1039
:100B04000000B7170040130770052380E70413079C
:100B140080FA2380E7040F10000003C767041367FB
:100B240017002383E70423800704732700809C4273
:100B3400A18BD98F7390078023A001860F1000002A
:100B4400B240410182808146014681451145B52C60
:100B5400F3270080A18B1387018689CBF3270080BC
:100B640023A0F1861C43DD9B739007800F100000C7
:100B7400B7170040930670052380D704930680FAC4
:100B84002380D7040F100000FD562396D70223803C
:100B94000704F32600801C43A18BD58F7390078034
:100BA40023A001860F100000F3270080A18B89CBBE
:100BB400F327008023A0F1861C43DD9B73900780FC
:100BC4000F100000B7170040930670052380D70468
:100BD400930680FA2380D7040F10000083C66704AD
:100BE40093E616002383D70423800704F3260080AA
:100BF4001C43A18BD58F7390078023A001860F100F
:100C0400000001A0BD473305F50201007D1575FD07
:100C14008280411122C426C206C6AA8401446317F5
:100C24009400B24022449244410182800504130599
:100C3400803E4204C13F4180DDB7B717004013072F
:100C440000032388E702854723A8F1867300203038
:100C540037370040834747409946BD8B638DD7069D
:100C640031476385E70011476399E708011126CCF2
:100C740022CEB734004003C4A4401374F40F1316F7
:100C84000401418221C685479305000403C591816F
:100C940032C62381F18A974000E0E78060653246DE
:100CA4009385844013850126973000E0E780E07443
:100CB400420541811DED85472146C14503C591810A
:100CC400A380F188974000E0E78060417244E244E9
:100CD40005617300203083475740730020308346FA
:100CE4008740850793F7F70F2380D188E319F4FE33
:100CF400D9B7814737370040D5BF73002030411141
:100D040006C68D25974000E0E780408DDDBF2303B4
:100D1400048015472303E48001002302A480828019
:100D240083076480E3CE07FE230304808280830765
:100D34006480E3CE07FE0345448082808307648099
:100D4400E3CE07FE2302A4808280411126C44AC256
:100D54004EC006C61377F50BAD47AA892E89954474
:100D64006306F70019456537653F8D444E85453761
:100D7400FD59FD1463983401B240A24412498249DA
:100D840041018280135509011375F50F453F22096E
:100D9400CDB7011126CC06CEB7040800513715454E
:100DA400BD37713769372AC6A53F32459377150099
:100DB40089EB136515001375F50FF240E2440561E4
:100DC4008280FD14E9FC0145CDBF397126DC4ADA85
:100DD4004ED852D656D45AD25ED006DE62CE66CCF7
:100DE400B7E700E07D5783AA070022C603AA47009D
:100DF40023A0E71823A2E718B717004013077005CC
:100E04002380E704130780FA2380E70483C7470499
:100E1400930B75FFB684E20793FBFB0F8546AA8903
:100E24002E8B328937240040E187015763FA76011B
:100E34006308D5008946130700026313D5000157E0
:100E4400D98F93F7F70FB71C00402382FC04114796
:100E54002303E4801305F00F5D3D094CD135636D28
:100E64007C11B7050700DA9537870700795563F2D7
:100E7400E504B3879500636EF702370B0800A947B2
:100E840033EB65016399F90689E48144513D268574
:100E94000DA0DA850945553D05090345F9FFFD1403
:100EA400050B693D81C49377FB0FFDF7DD3569FDC3
:100EB4007D55B7170040130770052380E704130717
:100EC40080FA2380E70403C74704418B2382E704A5
:100ED400F250B7E700E023A0571123A24711E254D0
:100EE40032445259C259325AA25A125B825B724C32
:100EF400E24C21618280A5476395F906856913094F
:100F0400F00FB3069900B3742B01B6941349F9FF9B
:100F1400B3749900856B33796901416B9387F9FF49
:100F2400B3F7270199E363FC340193D94900C1471E
:100F3400E3E637FF99BF0569C1697D19D9B7130580
:100F4400800D638869011305000263847901130528
:100F54001008CA85DD3B353D21DD4E99B38434410B
:100F6400D9B7DA852D45D533CA94E30099F205093A
:100F74007D3BA30FA9FED5BF9387F9FF93F7F70F26
:100F84006361FC0C83C71C0413073008631FF70458
:100F940037070800636BEB04B3079B00B706100028
:100FA40063F5D704334BEB0089476393F9068980D3
:100FB400D549E38C04ECDA850945413B1109032743
:100FC400C9FF91472320E48003076480E34E07FEB2
:100FD40023033481FD17EDFBFD14110B81C49377BA
:100FE400FB0FE9FF7D3371F5E1B5B717004003C787
:100FF4005704B70708001377070219E3B7870700F8
:101004007955E378FBEA33079B00E3FFE7F855B52E
:101014008547E382F9F2DA852D45053B9389F4FF90
:10102400E38504E6293393F7390091EB83260480A2
:101034000327090093074900E39AE6E43E89CE8436
:10104400F1BFB5476396F9001305900BC93135BD5F
:10105400B1471305B00AE38BF9FE99476391F9048C
:10106400B7050800B365BB002D45C53181448D4BE0
:10107400A149753963967401832704802320F900FC
:101084008504E39834FF8327048013172B016355E9
:1010940007002312F900D5BB2322F900FDB39D47B5
:1010A4006399F90281451305B0044531BD442320F9
:1010B400090023220900FD599D3993F77400CA974A
:1010C40003C70700FD14398D2380A700E39634FF7E
:1010D4006DBBA1476392F9046D398144630D0B0024
:1010E4008D479304C0036308FB0093040005630465
:1010F4008B01930440041375C507E30895D819457B
:10110400393139390545213126850D3909453D31B6
:101114004931E31C05D669BB91476399F90013056E
:101124006006F536F53E130590090DB7E38F09D433
:10113400F154A9BB19CD91CD09CE81473387F50070
:10114400834607003307F50085072300D700E3171C
:10115400F6FE828019C991C909CA910583A7C5FF02
:1011640011057D16232EF5FEC5BF828001C919C65F
:101174002A960505A30FB5FEE31DA6FE82808147CE
:101184003307F5000307070019E33E8582808507CE
:10119400C5BF01112E8626CAAA841315060193051C
:1011A400F004418122CC06CE32C6EF00F0512A84ED
:1011B40001C53246A685BD3F2285F2406244D24431
:1011C40005618280854715C18DC105C28147B3067B
:1011D400F5003387F50083C60600034707006398CC
:1011E400E6008507E315F6FE85473E858280814744
:1011F400EDBF9307F6FFBE952A966313C500828060
:10120400FD1583C715000505A30FF5FEFDB7AA87D5
:10121400014581CF09CE3E96850703C7F7FF6317C3
:10122400B700E39BC7FE054582808280014582802A
:1012340079719387C18B22D4804306D626D24AD0B3
:101244004ECE52CC56CA5AC85EC65DCCB7C4C9018C
:10125400014B9389418B9384F437174A0000130A96
:101264002ADD974A0000938A6AE0174900001309AF
:1012740029E48357240085E35C44631B0B0023AEFD
:10128400F18A832BC4002285EF0070505E84B9A8D4
:101294002326FB00FDB783A7090082971C4433076C
:1012A400F5406376F500032749001D8F2A9763E014
:1012B400E4089747000023A307DC83552400034573
:1012C4000400974000E0E780C0CA5C405844A1CBCA
:1012D4000C4403264900AE97BE8663E4B70063E47A
:1012E400C700B386C74014C4228B3A8459F0974789
:1012F40000009387A7D79C4B09476370F706F9173B
:1013040017470000232CF7D6B250225492540259A6
:10131400F249624AD24A424BB24B4561828063151C
:101324000B0023AEE18AB1BF2326EB0099BF03274C
:101334004A0209CF63EFA7003385A74083A70A01B8
:101344006376F5009747000023AAA7D2228B404476
:1013540071BF03274900BA97C5B79747000023AF69
:1013640007D05DB7411122C417440000130484D28E
:101374001C4006C626C24AC091C782979747000000
:1013840023AA07D09747000083C797EA858B974421
:1013940000009384A4E995C397470000A38A07E853
:1013A40083C774001547637AF700052B83C774005D
:1013B400F5178A07A2979C4382971C4491C382978E
:1013C4001389818A0327090017460000034616CAB9
:1013D4009747000083C787C993961700BA9683D6A8
:1013E4000600C5CE9747000083C747C863E1C70C12
:1013F40097470000238C07C61C4063950712974744
:10140400000083C737E391CF83C7740093F7F70FC6
:1014140089EB97470000A38F07E0975001E0E7802E
:1014240060029387418B9C43638E070E97470000AD
:10143400938707C8DC43174700002321F7C4CD3B3B
:10144400974700009387C7BEDC53E9CF17470000D6
:101454001307C7C1184B9747000083C7B7BE636320
:10146400F70C83C774001547636EF70A97470000AB
:1014740083C747E0918BDDE7032609009746000008
:1014840083C6D6BE63C6D70A2244B24092440249F8
:101494004101175302E06700A332850793F7F70F62
:1014A400974600002384F6BCE3E4C7F225BF860711
:1014B4003E9783550700231007002398018A9387DA
:1014C400018C9C4317450000034545BA13172500BA
:1014D400BA979C43829783D7018B17470000034731
:1014E400E7B893C7F7FF7D8D93171700032709000B
:1014F4003E97835707005D8D2310A7009747000090
:1015040083C7C7B691C78507174700002300F7B6FE
:1015140017470000034787B59747000083C717B5EF
:10152400E378F7ECB24022449244024941018280BC
:10153400139717003297035707006DF7850799B77C
:10154400AD6737C70040BD072326F7200F10000002
:1015540097470000938787B1C84F83278726BD66C6
:10156400BD0693C7F7FF99836A052326D7205D8DAF
:1015740082804111B7170040985F3AC6945F3247A2
:10158400E39CE6FE3245410182801305F00F828020
:10159400011197470000938767D522CC03A4070C59
:1015A40026CA06CE2AC42EC6854419E40145F24053
:1015B4006244D2440561828083479100034714004A
:1015C400858B6304F7000044CDB719469305A10049
:1015D40013052400C53EE31895FE0545C9BF1387CE
:1015E400C1981C439306001094C30100010001003C
:1015F40001001C4323A0070083461500034825006F
:10160400A2064208C29603480500C2960348350064
:101614006208C29694D78346550003486500A20623
:101624004208C29603484500C29603487500620802
:10163400C296D4D7834695000348A500A206420863
:10164400C29603488500C2960348B5006208C29654
:1016540094DB8346D5000348E500A2064208C296FF
:101664000348C5000345F500C2966205AA96D4DB7B
:1016740083C6150003C52500A2064205AA9603C524
:101684000500AA9603C535006205AA9694CF83C6C1
:10169400550003C56500A2064205AA9603C5450088
:1016A400AA9603C575006205AA96D4CF83C6950091
:1016B40003C5A500A2064205AA9603C58500AA96FD
:1016C40003C5B5006205AA9694D383C6D50003C5A5
:1016D400E500A2064205AA9603C5C50083C5F50028
:1016E400AA96E205AE96D4D3D443F59AD4C3D44390
:1016F40093E61600D4C3944393E6160094C3BA87C2
:101704009443D842058B59E3984E01452300E600E3
:101714009843184F2183A300E6009843184F418350
:101724002301E6009843184F6183A301E6009C431C
:10173400D84F2302E600D84F2183A302E600D84FF6
:1017440041832303E600D84F6183A303E600985343
:101754002304E60098532183A304E60098534183AD
:101764002305E60098536183A305E600D8532306B6
:10177400E600D8532183A306E600D8534183230708
:10178400E600DC53E183A307F600828001008DBFED
:10179400138701991443411122C49C5E4AC006C6B2
:1017A400998326C2858B3A841389C198D1C79C5EDC
:1017B40097440000938484A793F7F7F99CDE1747B6
:1017C4000000034707A793070008631BF70083275C
:1017D40009009C4393F7070417470000230BF7A461
:1017E40083C7040093F707048DC39387418B9C43FD
:1017F40082979747000023A3A7A483C7040093F705
:10180400F70B174700002303F7A283C7440093F79D
:1018140007049DE3854717470000A30BF7A09387B0
:10182400C1999C43096798C7130700FC97460000B9
:101834002380E6A0D844F8D31C40985F1183058B1D
:1018440009CB985F3D9B98DF0547974600002381AD
:10185400E69E985F1D83058B11CB985F1377F7F78E
:1018640098DF8547174700002304F79C8327090066
:10187400D8430583058B19C7D843759BD8C3D84370
:10188400799BD8C3B24022449244024941018280E8
:10189400397106DE16DC1ADA1ED82AD62ED432D2D4
:1018A40036D03ACE3ECC42CA46C872C676C47AC254
:1018B4007EC0F93DF250E2525253C2533255A25502
:1018C400125682567247E2475248C248324EA24EDE
:1018D400124F824F2161730020309387C199944342
:1018E400974700009387879403C70700058B11CBA4
:1018F40097470000238E079297470000A38A079218
:10190400828003C71700058B65F7F85271FF83C700
:101914005700DDB713880199032708001C5F9583DE
:10192400858BD1E709C61C5BBD832300F60085CAFD
:1019340083270800985B460793576701635607009F
:1019440093E707C0C207C18303970600C207C18794
:1019540009C7BA970947B3C7E7022390F60085CDB4
:10196400834715008DCB9746000083C6868C93F67B
:1019740006041387970089478DCA3A9503470500E3
:10198400854699471376F7066311D6026207618785
:10199400B947634C0700832708009C5FED838D8B58
:1019A40017470000A309F78881473E858280854751
:1019B400EDBF411122C406C61384C19918402DE914
:1019C400AE877453FDFE3E85B285974700002380A1
:1019D4000786974001E0E780207C938701999C4328
:1019E400B70680009843558F98C3D857719BD8D7B2
:1019F40097470000A38E078297470000A3880782B9
:101A04001C40094798C31440174700001307078276
:101A140083472700858B89EB83473700858BD9C3A0
:101A24009747000023860780B24022444101828008
:101A34008D47631EF500938701999C43B706800088
:101A44009843558F98C3D857719BD8D76DBF854796
:101A5400E31BF5FA5447F977FD17F58F5CC70F10B0
:101A640000001C40096798C7130700F817360000E8
:101A74002300E67C138701991043184231830D8BB0
:101A840011E713076019F8D3D4C7B5BF1842094644
:101A940031830D8B6315C7001307E043EDB71307BC
:101AA400E01BD5B7FC52ADF741B75D71A2C4A6C225
:101AB4002A84130680022800AE849305100886C683
:101AC400CAC04EDE52DCEFF06FEA3545975001E0B4
:101AD400E780E0A813830199832703009376F41F1A
:101AE400138E419A23A40700984B938EC199370F04
:101AF400FCFF1367F70398CBF84F130510F8B702F0
:101B04000400137707E0558FF8CF9843F576FD1658
:101B1400758F98C39843B7063300930380251377D2
:101B2400F7E798C3984311497D1F1377F7E71367C5
:101B3400071098C303270E008549930F80021C47A2
:101B4400D58F1CC783A70E001307900D3400B8CBA4
:101B5400014793553700A69583C705001376770090
:101B6400B3D7C740858BE1C38327030083280E00C6
:101B7400239C07042390070603A8C8021378D8FF00
:101B840023A6080383A807001378F70793F808F837
:101B940033E8080123A0070103A84702336858006B
:101BA40023A2070383A80E00014823A2780603DAC0
:101BB40007066307480303A80703038A06001358AC
:101BC400F80062081358884163580A0103A8070300
:101BD4001358F8002380060103D807061378F80F7A
:101BE40003AA480663060A0003DA8705E37F49FB74
:101BF40003A847023378E80123A20703838706007A
:101C0400635CF40003C805003396C9001346F6FF6D
:101C1400337606012380C5003E8663D3A7002A8657
:101C240013158601618505071377F70F8506E312FF
:101C3400F7F3B640264496440649F259625A616164
:101C440082809386C1999C42D84713161701635525
:101C54000602984713161701635006027D57B8D73A
:101C64001737000013078740584F05071736000041
:101C7400232CE640116798C798470D83058B1DCB2D
:101C8400173700000347A75A1367170017360000D9
:101C9400230FE658130700F817360000230AE65806
:101CA400214798C71387019910435856719B1367AE
:101CB400170058D69847058B0DC717370000034700
:101CC400F7561367170017360000A301E6560547B9
:101CD40098C71387019910435856719B13671700CF
:101CE40058D698470983058B09E798470583058BE0
:101CF40021CF9847173600001306465313850199E0
:101D04000983058B630307101841184331830D8B36
:101D140075EBAC4B184E93F5050203471700CDCD78
:101D240079EF13077006D8CF03470600136717002F
:101D340017360000230CE64E114798C718415C572C
:101D4400F19B93E717005CD79C42984793163701A1
:101D540063D606029736000083C6C660C18A173769
:101D640000001307A758C5CE034787071367070268
:101D7400973600002388E65E056798C79847931650
:101D8400270163D10602173700000347674A620739
:101D9400618763570700054797360000238AE648A2
:101DA400096798C798479316070163D606029736C2
:101DB400000083C6365B858A173700001307075374
:101DC400ADCE034797071367270097360000A38B10
:101DD400E658216798C7828029D785456315B700DF
:101DE4001307B00689B789456315B7001307F006D2
:101DF4001DBF8D456315B700130730072DB71307B3
:101E0400500715B71307600739BF03473600136738
:101E1400170017360000A30CE640094739BF834674
:101E240087070946BD8A6388C600034787078D462E
:101E34003D8BE313D7F4114725BF83469707918A57
:101E4400C9DA034797071367870041B7397106DE7C
:101E540016DC1ADA1ED82AD62ED432D236D03ACE8E
:101E64003ECC42CA46C872C676C47AC27EC0D13B52
:101E7400F250E2525253C2533255A2551256825670
:101E84007247E2475248C248324EA24E124F824F26
:101E94002161730020309387C199984385679387A4
:101EA40007777CD39387419A9C4383A607091396AB
:101EB40056006358060083A6070913966600634418
:101EC40006007453FDF2828061C1AA870145DDCD0D
:101ED4008D07C207C183F19BC207C1831307400367
:101EE400636BF702138701A30843138781A214438A
:101EF4006396A6021737000013078713185B014582
:101F040051C74111C20706C60545DD8D0297B2408F
:101F14000145410182801387C1A2F9B703576500C7
:101F240035E303574500636FF704B306F7402146D2
:101F3400637CD60203280500938687001D8FAA962A
:101F44006117173600000356C6122392E60023A039
:101F540006012393060014C12312F500130786FF1C
:101F6400973600002397E6102313B5009735000039
:101F740083D52510B387F54017370000231BF70ED0
:101F8400210582800841ADB701458280828009CD58
:101F9400938701A303A30700938781A283A8070063
:101FA40081469A8763E31701828003A80700636967
:101FB400F50A6367A80A13878700E367E5FE03D67B
:101FC4006700216705076317E60003C74196050705
:101FD4002382E196973500009385450903D647008F
:101FE40003D76500239307003297420741831735CF
:101FF40000002310E508638867021385C1A2084125
:102004006303F50203D5660019ED83D7460023A0C8
:10201400060121073E9621062392C6009737000049
:102024002399E704B6879843E30017F99386C1A27E
:102034009442E30BD7F683566700BDF683D6470078
:10204400035647001843A106B2962392D70098C3BB
:1020540083D76500A10717370000231CF70082808F
:10206400BE86C28781B70327851163020712411117
:1020740022C406C68347C5008345E5042A8493F732
:10208400C70F2306F500834697000356C700139530
:102094008601618563F2C508635B05060345870015
:1020A40093F6F607A304D700054693E627006314C6
:1020B400C50093E617002306D4005C4389075CC37C
:1020C400A30AB400032504112E864C430905EFF03E
:1020D4006F868327841103465401D44303D7C70072
:1020E400B296118FD4C32396E7008947A30DF40059
:1020F400034764039737000083C7A7F46378F704A2
:102104008347C40093E707012306F40081A093E703
:1021140017002306F4006DB79376F60F635D05028E
:1021240003458700854513E627006314B50013E6CD
:1021340017002306C400A30AD400A304070085479C
:10214400A30DF400832784119C43DDF3B2402244A1
:1021540001454101828093E717002306F400A30A96
:10216400D400A3040700032504114C430905EFE040
:102174007FFC8327841103465401D44303D7C7004B
:10218400B296118FD4C32396E7008D4755BF0545FA
:102194008280938781A39C43411122C406C6858B08
:1021A4002A84C5EF4165130525F597F001E0E78022
:1021B400804945C58347A5002315F50083270412EC
:1021C400BDE72320A4122322A41285472311F4047B
:1021D400232005008347640154412316F500034777
:1021E400D4002304E5000547A304E50017370000E5
:1021F4001307C703184F1385170215811C437D1558
:102204001375F50F9CC25C43DCC21C479CC65C473B
:10221400DCC61C4B9CCA5C4BDCCA1C4F9CCE5C4F7E
:10222400DCCE19CD9386060213070702C1BF8327AC
:10223400441288C3835724042322A412850779B740
:102244009737000083D7070B850717370000231340
:10225400F70AB2402244410182808347C400230923
:102264000400054593C747002306F400DDB7834700
:10227400850193F7E70FC5EF83479501CDEB03463F
:1022840025018346C50009CA834565031737000045
:10229400034737DB63E7E50013F7060151CB01473A
:1022A40009C6C18A0357651C81C68356A51C369787
:1022B40041C31307C712173500000355E5DFB335D3
:1022C400A70237460F00411113060624814622C493
:1022D40026C206C67D543305A702972002E0E78094
:1022E400A0419737000083C737D6B384A700973738
:1022F40000009387A7FF03A787098327070963F3D0
:1023040087003E84184375FB9387418B9C438297D7
:1023140081476364A400B307A440B2402244B3B726
:10232400970093C7170092443E85410182808147FC
:102334003E8582809387C19998437C53FDFF8280B8
:10234400797126D206D622D44AD04ECE52CC56CA61
:102354005AC85EC68347550303447513AA843E9442
:102364001374F40F9307400263F687001304B4FD5B
:102374001374F40F03AA841383AAC413A38B8412C3
:1023840022865285D685972002E0E7806031058950
:1023940015E503CBD41201498149337B6403930BC4
:1023A40050024A865285D685972002E0E780402F66
:1023B400058915C5639169031374F90F238B84127E
:1023C400B250225492540259F249624AD24A424BC0
:1023D400B24B456182808509E20993D98941050997
:1023E400E31179FDE1BF832785090356050479715B
:1023F40093D60701BD8EC206C182358E135776402F
:1024040093575640898B058B5D8F93573640918B3C
:102414005D8F93571640A18B5D8F93171600C18B68
:102424005D8F9317360093F707025D8F931756005D
:102434009355860093F707041E065D8F1376F60FF7
:10244400518F93D7554013D63540118A898BD18F3C
:1024540013D67540D18F13D61540218AD18F139688
:102464001500418AD18F1396350013760602D18F59
:1024740013965500137606049E05D18F93F5F50F38
:10248400CD8FA20745465D8F3307C70222D42A8425
:1024940026D252CC56CA032A8413832AC4135AC898
:1024A40006D63697420741839357774013555740D2
:1024B4000989858BC98F135537401189C98F1355E5
:1024C40017402189C98F131517004189C98F131526
:1024D400370013750502C98F1315570093558700EC
:1024E400137505041E07C98F1377F70FD98F13D5FA
:1024F400354013D755401189098B498F13D5754041
:10250400498F13D515402189498F139515004189A9
:10251400498F1395350013750502498F139555009E
:10252400137505049E05498F93F5F50F4D8F22070A
:10253400D98FB387C7024AD04ECE5EC662C4B6975F
:10254400C207C18313D7774013D557400989058B38
:10255400498F13D537401189498F13D517402189E5
:10256400498F139517004189498F139537001375C7
:102574000502498F1395570093D5870013750504F9
:102584009E07498F93F7F70FD98F13D5354013D78B
:1025940055401189098B498F13D57540498F13D53F
:1025A40015402189498F139515004189498F139549
:1025B400350013750502498F1395550013750504ED
:1025C4009E05498F93F5F50F4D8F2207D98FB38759
:1025D400C702130650025285D685B697BD8E9394D2
:1025E4000601C18033F6C402137BF60F972002E084
:1025F400E780000B05890DED8347D4120149814919
:10260400B3849702130C5002C1804A865285D68542
:10261400972002E0E780C0080589937BF90F11C574
:1026240063863403850993F9F90F0509E31F89FDCE
:10263400230B6413B250225492540259F249624A51
:10264400D24A424BB24B224C456182805E8BCDB75D
:10265400797122D406D683C735002E84231601004F
:10266400A307F10083C74500100802C02307F10047
:1026740083C755008A8502C2A306F10002C402C8BA
:1026840002CA02CC02CEEFE09FF50347F101834773
:10269400040001456310F7020347E1018347140076
:1026A40001456319F7000345D101834724001D8DBB
:1026B40013351500B25022544561828001119737B9
:1026C40000009387A7C222CC03A4870C26CA4AC859
:1026D4004EC606CEAA8413092500854915C083C7B2
:1026E400140003473400858B6304F700405CFDB796
:1026F4001946930544004A85EFE0DFACE31835FF43
:102704002285F2406244D2444249B2490561828042
:10271400411197370000938767BD22C403A4870C37
:1027240026C24AC006C693042500054901E822854D
:10273400B24022449244024941018280A685130595
:10274400A4023937E30525FF405CCDB74111973723
:1027540000009387A7B922C403A4870C26C24AC0E9
:1027640006C693042500054901E82285B2402244A7
:102774009244024941018280A6851305A401C93D02
:08278400E30525FF405CCDB721
:10278C0097110020938141B2176100201301C1867B
:10279C001305400097E5FF1F93850586170600205B
:1027AC00130606FE63FAC5008322050023A055001C
:1027BC0011059105E3EAC5FE174502001305C50B8B
:1027CC00970500209385C5FB1386018663FAC50027
:1027DC008322050023A0550011059105E3EAC5FEEF
:1027EC001385018697350020938545C26377B50024
:1027FC00232005001105E36DB5FEFD42739002BC6C
:10280C008D4273904280930280087390023097D26D
:10281C00FF1F9382627E93E232007390523037171F
:10282C000040930770052300F704930780FA2300F8
:10283C00F7040F1000003C47B70600FAE116F58FBD
:10284C00B70600069506D58F3CC7972200009382E9
:10285C00023073901234730020303D432A87637327
:10286C00C3029377F700BDEFADE5937606FF3D8A83
:10287C00BA960CC34CC30CC74CC74107E36BD7FECD
:10288C0011E28280B306C3408A0697020000969636
:10289C006780A6002307B700A306B7002306B7007E
:1028AC00A305B7002305B700A304B7002304B700A2
:1028BC00A303B7002303B700A302B7002302B7009A
:1028CC00A301B7002301B700A300B7002300B70092
:1028DC00828093F5F50F93968500D58D939605011F
:1028EC00D58D61B793962700970200009696868245
:1028FC00E78086FA9680C1171D8F3E96E374C3F865
:10290C00A5B7B717004003C777051377E70FA38B5D
:10291C00E704130700F8A38DE7043D47238CE70475
:10292C0013075003A38CE7048280B717004083C7BA
:10293C00E7040D8993F7C70FC98F73270080218B8C
:10294C009386018609CB7327008023A0E1869842E9
:10295C005D9B731007800F100000371700401306A3
:10296C0070052300C704130680FA2300C7040F1058
:10297C0000002307F70423000704732700809C4200
:10298C00A18BD98F7390078023A001860F100000B4
:10299C008280B717004083C7E704120593F7F70846
:1029AC00C98F93F7F70F73270080218B93860186CD
:1029BC0009CB7327008023A0E18698425D9B73109E
:1029CC0007800F1000003717004013067005230016
:1029DC00C704130680FA2300C7040F100000230756
:1029EC00F70423000704732700809C42A18BD98F26
:1029FC007390078023A001860F1000008280B71708
:102A0C00004083C7E7020D8993F7C70FC98F73275F
:102A1C000080218B9386018609CB7327008023A02D
:102A2C00E18698425D9B731007800F1000003717EA
:102A3C000040130670052300C704130680FA230018
:102A4C00C7040F1000002307F702230007047327A5
:102A5C0000809C42A18BD98F7390078023A00186A4
:102A6C000F100000828041112A83014E930E407E8C
:102A7C00130F0019930F400663E66E1493080019A8
:102A8C0013034006B3781503854E0D4FA14F3373D6
:102A9C0065020D891335150063E0BE161308F6FFA9
:102AAC00794672984208135808013307C70213D6A7
:102ABC001700BE0732976146B3F6C6021306807044
:102ACC00B386C6023697A166F58F42075D8FB7169F
:102ADC00004083C7F60293F70708A307F1000346EB
:102AEC00F10083C7F60293F70708E394C7FE834708
:102AFC00F100B716004093F7F70F63890714F3271B
:102B0C000080A18B93860186639807140F10000038
:102B1C00B7170040130670052380C704130680FA0C
:102B2C002380C7040F10000023AA070303C6170352
:102B3C0013660608A388C702238007047326008047
:102B4C009C42A18BD18F7390078023A001860F101C
:102B5C0000001166B71500407D16DC59C85DA98FC1
:102B6C00F18FE5FFF3270080A18B89CBF327008041
:102B7C0023A0F1869C42DD9B739007800F10000010
:102B8C00B7170040130670052380C704130680FA9C
:102B9C002380C7040F100000D8DB03C7170313678B
:102BAC000704A388E70223800704732700809C4254
:102BBC00A18BD98F7390078023A001860F10000082
:102BCC00410182807D133368E3039308E016630EA2
:102BDC0008003368F3039308D01663080800937851
:102BEC00330093B818009388D81633081E01131EAF
:102BFC000801135E0E0149B56393E503054863862E
:102C0C0008000148630303002A8871087298FD15B7
:102C1C00131E0801C205135E0E01C181B5BD13F868
:102C2C00150063F4BF007908D5B713381800E5BF59
:102C3C0083C7F60293F70708A307F1000346F100D8
:102C4C0083C7F60293F70708E394C7FE8347F100A6
:102C5C0093F7F70FF1DF65B5F327008023A0F1861A
:102C6C009C42DD9B7390078055B55971E2C486D6A2
:102C7C00A2D4A6D2CAD0CECED2CCD6CADAC8DEC6A0
:102C8C00E6C2EAC06EDE2A8C02D6EF00B036F3271D
:102C9C000080A18B138D018691CBF327008023A09C
:102CAC00F18683270D00DD9B739007800F100000C9
:102CBC00B7170040130770052380E704130780FA49
:102CCC002380E7040F10000003C7F7021377770F78
:102CDC00A387E70203C7F70213678700A387E702FE
:102CEC00238007047327008083270D00A18BD98FC5
:102CFC007390078023A001860F100000F32700803B
:102D0C00A18B91CBF327008023A0F18683270D00A4
:102D1C00DD9B739007800F100000B717004013075E
:102D2C0070052380E704130780FA2380E7040F1053
:102D3C00000003C7E7021377C70F2387E70203C717
:102D4C00E702136717002387E70223800704732722
:102D5C00008083270D00A18BD98F7390078023A04F
:102D6C0001860F100000130780C13347E5029169FB
:102D7C00938709E8130650023D69B7440F0093840A
:102D8C000424856B130BA004014A814A13047005BB
:102D9C00FD19B347F5023307C7023EC2930709A6D4
:102DAC001309803E3347F7023AC4334725030549DC
:102DBC0033198901135939403345950293840BFA21
:102DCC00B3948401811B3306C702B346F602330960
:102DDC00E90236C6330B670313076055B30495023B
:102DEC00130500103309E902B346FB02130B80FAFA
:102DFC00B3C4A40236C8B347F9029396340037190A
:102E0C00004036CC930409043ECA73260080218A04
:102E1C0011CA7326008023A0C18603260D005D9A7B
:102E2C00731006800F100000930770052380F400C8
:102E3C00238064010F100000034639051376860FBA
:102E4C00A309C9040346390513661600A309C9046E
:102E5C00238004007325008003260D00218A498EEF
:102E6C007310068023A001860F100000916CE17D89
:102E7C0073260080218A11CA7326008023A0C18684
:102E8C0003260D005D9A731006800F100000930747
:102E9C0070052380F400238064010F1000000346AA
:102EAC00390513660602A309C904035609053366DE
:102EBC0096012318C904035609053366B601420668
:102ECC0041822318C9042380040073250080032643
:102EDC000D00218A498E7310068023A001860F10E5
:102EEC0000000346390513760602630706160346EF
:102EFC003905218A6DDE6810EF00F013732600800F
:102F0C00218A11CA7326008023A0C18603260D00D6
:102F1C005D9A731006800F100000238084002380BC
:102F2C0064010F100000034639051376F60DA30952
:102F3C00C9040346390513660602A309C9040356DE
:102F4C000905336696012318C9040356090533662F
:102F5C00B601420641822318C9042380040073255C
:102F6C00008003260D00218A498E7310068023A051
:102F7C0001860F100000034639051376060263091B
:102F8C00061003463905218A6DFE97D0FF1FE78096
:102F9C00C00F2A8632CE97D0FF1FE780000F7246F3
:102FAC00E30AC5FE0356090532553366960123180C
:102FBC00C904EF00500A03463905218A6DDE03551A
:102FCC00090503462905924733F5A9003386C90242
:102FDC0032951D8DA24763D5A700B2476346F50E07
:102FEC0009466365560FC247850A1316150093FAF6
:102FFC00FA0F3346F6026354A03A050609453346E8
:10300C00A60273250080218911C97325008023A095
:10301C00A18603250D005D99731005800F1000002B
:10302C0023808400238064010F1000000355C90223
:10303C002A96420641822316C90223800400732576
:10304C00008003260D00218A498E7310068023A070
:10305C0001860F10000029BD73260080218A11CA39
:10306C007326008023A0C18603260D005D9A731081
:10307C0006800F10000023808400238064010F1051
:10308C0000000346390513660602A309C90425BDD1
:10309C0073260080218A11CA7326008023A0C18662
:1030AC0003260D005D9A731006800F10000023801C
:1030BC008400238064010F10000003463905136659
:1030CC000602A309C90451BDE38F0AF073260080E0
:1030DC00218A11CA7326008023A0C18603260D0005
:1030EC005D9A731006800F100000238084002380EB
:1030FC0064010F100000034639051375FC0F13769D
:10310C00860FA309C90403463905498EA309C904CE
:10311C00238004007328008003260D00218A336667
:10312C0006017310068023A001860F1000000346D1
:10313C0039051D8A6317862773260080218A11CAD8
:10314C007326008023A0C18603260D005D9A7310A0
:10315C0006800F10000023808400238064010F1070
:10316C0000000346390511651376F60DA309C90451
:10317C000346390513660602A309C904035609055B
:10318C00498E2318C904035609052165498E231855
:10319C00C904238004007325008003260D00218AB6
:1031AC00498E7310068023A001860F100000034681
:1031BC00390513760602630E062003463905218A6B
:1031CC006DDE68108D2D73260080218A11CA73263E
:1031DC00008023A0C18603260D005D9A7310068023
:1031EC000F10000023808400238064010F10000066
:1031FC000346390511651376F60DA309C904034678
:10320C00390513660602A309C90403560905498E3C
:10321C002318C904035609052165498E2318C904CE
:10322C00238004007325008003260D00218A498E1B
:10323C007310068023A001860F1000000346390589
:10324C00137606026303061C03463905218A6DFEBC
:10325C0097D0FF1FE78060E3AA8C97D0FF1FE78011
:10326C00C0E2E30C95FF035609051165498E3255F2
:10327C002318C904CD2303463905218A6DDE732634
:10328C000080218A1385018609CA7326008023A039
:10329C00C18610415D9A731006800F1000002380C8
:1032AC008400238064010F10000003463905137657
:1032BC00F60DA309C9042380040073280080104173
:1032CC00218A336606017310068023A001860F1035
:1032DC0000000358090503462905E24733F80901A4
:1032EC003386C90232983308F8401306800C330633
:1032FC00C802D2473346F602635500150506094845
:10330C00334606036351C0140358C9029308F00FE7
:10331C0013585800329863D6081F09466373461930
:10332C00F3270080A18B89CBF327008023A0F186A3
:10333C001C41DD9B739007800F1000003717004075
:10334C00930770052300F704930780FA2300F70412
:10335C000F1000008356C70289678117D58FC207EB
:10336C00C1832316F70223000704732700801C4136
:10337C00A18BD98F7390078023A001860F100000BA
:10338C00B650265496540659F649664AD64A464BC8
:10339C00B64B264C964C064DF25D656182807D16CF
:1033AC00B1B973260080218A11CA7326008023A02C
:1033BC00C18603260D005D9A731006800F10000065
:1033CC0023808400238064010F100000034639051C
:1033DC002DBB73260080218A11CA7326008023A07E
:1033EC00C18603260D005D9A731006800F10000035
:1033FC0023808400238064010F10000003463905EC
:10340C0013660602A309C90469B373260080218AD6
:10341C0011CA7326008023A0C18603260D005D9A75
:10342C00731006800F100000238084002380640139
:10343C000F1000000346390513660602A309C904E0
:10344C00C5B37D166DBD55CE0358C902B308C04037
:10345C00135858006357180B094663744605F32735
:10346C000080A18B89CBF327008023A0F1861C411F
:10347C00DD9B739007800F100000B71700401307F7
:10348C0070052380E704130780FA2380E7040F10EC
:10349C00000003D7C7027D8B2396E7022380070425
:1034AC00E9B573260080218A09CA7326008023A0FF
:1034BC00C18610415D9A731006800F1000002380A6
:1034CC008400238064010F1000000356C902137698
:1034DC00F60F33667601420641822316C902238019
:1034EC000400732800801041218A33660601731092
:1034FC00068023A001860F100000050A137AFA0F2C
:10350C0029B2F3270080A18B89CBF327008023A05D
:10351C00F1861C41DD9B739007800F100000B717DC
:10352C000040130770052380E704130780FA2380FB
:10353C00E7040F10000003D7C70216063A9642069E
:10354C0041822396C70299BF914763EEB7021737A2
:10355C000200130767888A05BA959C41BA9782873F
:10356C00B717004003A7470B1345F5FF698F23AA34
:10357C00E70A03A7070B698F23A8E70A03A7070A23
:10358C00798D23A0A70A8280B717004083A6470B2A
:10359C001347F5FFF98E23AAD70A83A6070B558D7F
:1035AC0023A8A70A83A6070A758F23A0E70A82809F
:1035BC00B717004003A7470B498F23AAE70A03A7B5
:1035CC00070B1345F5FF45BFB717004083A6470B04
:1035DC001347F5FF758F23AAE70A03A7070A598D2E
:1035EC004DB7B717004003A7470B498FEDB791476D
:1035FC0063EEB702172702001307477F8A05BA95B7
:10360C009C41BA978287B717004003A7470D134513
:10361C00F5FF698F23AAE70C03A7070D698F23A871
:10362C00E70C03A7070C798D23A0A70C8280B71792
:10363C00004083A6470D1347F5FFF98E23AAD70C3C
:10364C0083A6070D558D23A8A70C83A6070C758F91
:10365C0023A0E70C8280B717004003A7470D498FC2
:10366C0023AAE70C03A7070D1345F5FF45BFB717B2
:10367C00004083A6470D1347F5FF758F23AAE70C6F
:10368C0003A7070C598D4DB7B717004003A7470D7B
:10369C00498FEDB79387018625E173270080218B35
:1036AC0009CB7327008023A0E18698435D9B7310A0
:1036BC0007800F1000003717004093067005230099
:1036CC00D704930680FA2300D7040F10000083461A
:1036DC00E70093C5F5FFF58D2307B700230007041A
:1036EC00732700809C43A18BD98F7390078023A0F4
:1036FC0001860F10000082807D163336C0007327C0
:10370C000080218B09CB7327008023A0E18698438E
:10371C005D9B731007800F10000037170040930655
:10372C0070052300D704930680FA2300D7040F10EA
:10373C0000008346E700D58D93E505042307B70009
:10374C0023000704F32600809843218B558F7310B8
:10375C00078023A001860F10000073270080218BA7
:10376C0009CB7327008023A0E18698435D9B7310DF
:10377C0007800F10000037170040930670052300D8
:10378C00D704930680FA2300D7040F100000834659
:10379C00F70093F6C60FA307D70023000704F32600
:1037AC0000809843218B558F7310078023A00186CE
:1037BC000F10000073270080218B09CB732700802A
:1037CC0023A0E18698435D9B731007800F100000C7
:1037DC0037170040930670052300D704930680FA30
:1037EC002300D7040F1000008346F700558EA30763
:1037FC00C700EDB5B717004003D5870042054181DE
:10380C009377050491EB9377F5013755E801130590
:10381C0005803345F50282809377050C130700046D
:10382C006397E7009377F50137459C1CCDB721656D
:10383C00130505D0828037E700E01C435443A18375
:10384C00E206D58F1CC1FD572320F7182322F71849
:10385C000F100000828013178500B7E700E023A04B
:10386C00E710618123A2A7108280B7F700E0884798
:10387C00CC478280814737370040A14663C4C700DC
:10388C00328582800345B740E38EA6FE3385F50072
:10389C000345050085072304A740CDB797F7FF1F05
:1038AC00938787209C4317270020130727B63E9544
:1038BC00636EE50017470020130707546368A700E1
:1038CC0017F7FF1F2322A71E3E858280FD57EDBFF1
:1038DC00411122C406C62A84313F2947B307E502A9
:1038EC00B2408D83B3D7870222449507B3D7E70242
:1038FC0037370040C207C1832316F740410182804D
:10390C00716541111305052006C6D937B73700403C
:10391C00130770F82381E7400D47A381E740130795
:10392C000004A380E74005472387E740B2404101EC
:10393C008280B737004003C7174019C9D98DA380BF
:10394C00B74003C70740136787002380E740828096
:10395C0093C5F5FFF98DA380B7408280CC4141110E
:10396C0006C6328503C6150083C5050022064D8E9A
:10397C0042068D654186138875A2630C060F634859
:10398C00C804138845A26306060B634AC8009385D6
:10399C0035A26309B60623900600294679A0138840
:1039AC0055A26308060B938565A2E316B6FEC145C6
:1039BC001D4663ECE5064546198E63F3C7003E864B
:1039CC002390C600972502009385854489A8138807
:1039DC0095A26300060F634E060B1388A5A2630A1B
:1039EC00060F938505A5E318B6FA99451D4663EEB7
:1039FC00E502198E63F3C7003E862390C6009385BB
:103A0C00C18031A89D451D4663E1E5022146198E12
:103A1C0063F3C7003E862390C60093854186BA9512
:103A2C0097D0FF1FE78080700146B240328541017C
:103A3C008280AD451D46E3EAE5FE3146198E63F3FF
:103A4C00C7003E862390C60097250200938505404B
:103A5C00F9B7B1451D46E3EAE5FC3546198E63F32B
:103A6C00C7003E862390C600972502009385053F2C
:103A7C007DB7C1451D46E3EAE5FA4546198E63F369
:103A8C00C7003E862390C600972502009385853992
:103A9C0079B7C1451D46E3EAE5F84546198E63F34F
:103AAC00C7003E862390C600972502009385053CEF
:103ABC00BDB7C1451D46E3EAE5F64546198E63F3ED
:103ACC00C7003E862390C600972502009385C53615
:103ADC00B9B7B5451D46E3EAE5F43946198E63F3EB
:103AEC00C7003E862390C60097250200938545317A
:103AFC003DB797F6FF1F9386A6DB4146CD4517F5DC
:103B0C00FF1F1305E5C76F90302511456FF0EF953A
:103B1C00411193962500AA852D4506C697D0FF1F07
:103B2C00E780202AB240014541018280411126C222
:103B3C009394250022C44AC02A843289A686AA8579
:103B4C000146254506C697D0FF1FE7808027A6862D
:103B5C004A86A285294597D0FF1FE7808026B24070
:103B6C00224492440249014541018280011122CC38
:103B7C0006CE3714004026CA4AC84EC652C48344E7
:103B8C007405034AB4058349840503499405EFE0A1
:103B9C005FD78347A40593F4F40F137AFA0F93E7D6
:103BAC001700230DF40493F9F90F1379F90FB717D4
:103BBC00004003C7A705058B6DFF03D5C705A38D73
:103BCC004705238C3705A38C2705A38B9704F2405C
:103BDC006244D2444249B249224A05618280411171
:103BEC009397050122C406C6C1872E8463DD0700A6
:103BFC00EF10200619C1EF00B07E2165218DB24077
:103C0C0022444101828093F7150013C51500E5FB92
:103C1C009397250163D00702EF201141FD3537F64C
:103C2C000200130606E0896503C5C186EF10204A21
:103C3C000965E9B7939715010145E3D207FC1725F0
:103C4C00020013056528EF10A200130600649165AD
:103C5C0003C5C186EF10A04711654DB71D714946CC
:103C6C00972502009385C521172502001305855958
:103C7C0086CE97D0FF1FE780605401E9172502001C
:103C8C0013054521EF00D27C01A0B7F600E079576F
:103C9C0098CAFD57DCCA0567B7E700E023A0E71018
:103CAC001306F00290C223A0E7180F1000001306B1
:103CBC00C0038145480897D0FF1FE780A04A9707AB
:103CCC000020938727B63ECA896793870780231CF9
:103CDC00F100A167938707E03ECEB70701059387F4
:103CEC0007103ED09307F00F2312F10285472303F0
:103CFC00F102970700009387E7E1BEC49707000025
:103D0C00938707E3BEC697070000938747B63EDA52
:103D1C00970700009387C7E53EDE9707000093875F
:103D2C0007DFBEC0B737010D9387D7D0B7F50700B3
:103D3C003ED48146970700009387C71C7000E105AD
:103D4C0019453EDC97D0FF1FE780A0075808814734
:103D5C00994670003E960346060085070507A30C9E
:103D6C00C700E398D7FED24791C7035781018567F7
:103D7C006373F70001A04808EF10A07DAA8501C964
:103D8C001725020013054512EF00F25A01A0F64068
:103D9C0025618280411117050000130585E406C6D4
:103DAC0022C4EF1080771384C1862300A4008D28D1
:103DBC001524034504002244B240130600328965E1
:103DCC0041016F10C030F3270080A18B138701864F
:103DDC0089CBF327008023A0F1861C43DD9B7390D5
:103DEC0007800F100000B717004093067005238062
:103DFC00D704930680FA2380D7040F100000C8DB89
:103E0C0023800704F32600801C43A18BD58F73906D
:103E1C00078023A001860F10000023A80186828052
:103E2C00411106C6F3270080A18B1387018689CB2D
:103E3C00F327008023A0F1861C43DD9B7390078041
:103E4C000F100000B7170040930670052380D704AD
:103E5C00930680FA2380D7040F10000083C6F70264
:103E6C0093F6A60FA387D70223800704F3260080BE
:103E7C001C43A18BD58F7390078023A001860F1054
:103E8C000000F3270080A18B89CBF327008023A0AF
:103E9C00F1861C43DD9B739007800F100000B71751
:103EAC000040930670052380D704930680FA238084
:103EBC00D7040F10000083C6F70293E62600A387F1
:103ECC00D70223800704F32600801C43A18BD58FD7
:103EDC007390078023A001860F1000000545EFE0CA
:103EEC001FB225311305407E8147014781460546A7
:103EFC008545EFE05FB7B240014541016F10D01925
:103F0C00011122CC2A84680006CE26CA2D3297C015
:103F1C00FF1FE7808017B307A4406376A400B707A0
:103F2C00C0A8A297898F3737E2A181170117637D4B
:103F3C00F70032450944053283C7218ABDE797C093
:103F4C00FF1FE780001695A02285B53D3245213232
:103F5C00373700408347574093F70704A9CF93871F
:103F6C0001871387218A9443BE848347070093F704
:103F7C00F70FB9EEB9C397C0FF1FE78080129C40C2
:103F8C008DC31305D402B707C0A863F7A700370584
:103F9C0040571305D50222953D3597C0FF1FE7808A
:103FAC0040100545EFE07F9801442285F2406244C1
:103FBC00D24405618280010071BF0546E14505458B
:103FCC00EFF04FED694597C0FF1FE780E02D45BF2F
:103FDC000D44ADB7F3270080A18B1387018689CBE5
:103FEC00F327008023A0F1861C43DD9B7390078090
:103FFC000F100000B7170040930670052380D704FC
:10400C00930680FA2380D7040F10000083C6E700C4
:10401C0093E686002387D70023800704F3260080CD
:10402C001C43A18BD58F7390078023A001860F10A2
:10403C000000F3270080A18B89CBF327008023A0FD
:10404C00F1861C43DD9B739007800F100000B7179F
:10405C000040930670052380D704930680FA2380D2
:10406C00D7040F10000083C6170393E60602A3883B
:10407C00D70223800704F32600801C43A18BD58F25
:10408C007390078023A001860F100000B7E700E0B3
:10409C003707001023A0E71082805842011122CC70
:1040AC0006CE83471700034707002317B100A2076A
:1040BC00D98F0547C2072316E1007D77C187130707
:1040CC0037A02A8495466393E7008D4670009305CC
:1040DC00B1001385C146A305D100792C8357E100AB
:1040EC0099C71306E100A2851385C14671240946C0
:1040FC00894503C59181EF00907D056685471306C0
:10410C0006C89305000403C591812381F18AEF0051
:10411C00107CF240624405618280011122CC06CEF3
:10412C0026CA4AC883C88500214493F80802639FB5
:10413C00080403CE0500894863041E010144B9A09C
:10414C0003AE4500B28483471E00034E0E00A20747
:10415C00B3E7C7010D6E130E2E906390C70585470C
:10416C002A89EF7030032A8415E19387418798439D
:10417C0071D783C7140083C604004C00A207D58FE7
:10418C00B337F00085073EC24A8502972285F2407C
:10419C006244D2444249056182803A88056713071C
:1041AC00D75FBA97F59BB367F800C207C183D9F7FD
:1041BC002E862685B685D53551B703C805008947A7
:1041CC0029456310F808D841011122CC26CA06CE25
:1041DC0083471700034707003684A207D98F0D6762
:1041EC0013072790B2846391E702CC452390060114
:1041FC000946268597D0FF1FE78040F30145F24022
:10420C006244D244056182803D67130737A0E3986E
:10421C00E7FE1385012615221307A00FAA876374E6
:10422C00A7009307A00F2317F10019C51306E1008F
:10423C00A68513850126112C8357E1002310F40069
:10424C0075BF828041677917630CE502411122C466
:10425C0006C685472A84639AF50022852244B2401B
:10426C00938501A541016F90003A89476396F5004B
:10427C008545EFB0006E75D1B24022444101828079
:10428C008280411126C2AA844165938501A57D15C2
:10429C0006C622C4EF902037170500001305C5FA97
:1042AC00EFB0606297E6FF1F9386466741469945DB
:1042BC0017E5FF1F13058560EF90002A2A8419C5A6
:1042CC0017250200130585C0EF0092182285B24015
:1042DC00224423AA91869244410182804111938504
:1042EC0001A506C6EF70C065B2407D1513351500EB
:1042FC0041018280411122C42E84938501A526C2DE
:10430C0006C6AA84EF70C063058915C197E7FF1F25
:10431C009387C75A83D7A702A285B2402310F40013
:10432C00224426859244014641016F80403EB240B2
:10433C00224492444945410182808357250003550C
:10434C0005003385A740420541818280AA8705C2BA
:10435C001307F6FFB376C700054599EA23A00700BB
:10436C00CCC32394C7002395E70001458280054503
:10437C008280232005008280AA871145B5C72DC6EF
:10438C0083D6070003D787000D45369783D62700C1
:10439C00158F4207418329CB0145B9C583560600C9
:1043AC006373D700BA86C206C18201471315070191
:1043BC0041816366D5002310D60001458280338588
:1043CC00E5008348050003D8A70003D5270005079F
:1043DC0033780501C84342952300150103D5270006
:1043EC0005052391A700D9B782802A8729CD83564A
:1043FC0005008357A500B697835625008507958F32
:10440C00C207C183BE866373F600B286C206C18240
:10441C000D459DCB81476394D7000145828003569F
:10442C0027000355A70003C805008507718D50436D
:10443C00C207C1832A9623000601035627000506EE
:10444C002311C700C9BF11458280AA871145B1CF7E
:10445C0029CE83D6070003D72700158F8356060075
:10446C00420741836373D700BA86C206C1820945ED
:10447C000DCF01476366D7002310D600014582801B
:10448C0003D5070003D8A70033780501C84342952C
:10449C00034805003385E50005072300050103D516
:1044AC00070005052390A700F1B7828029C50357A3
:1044BC00050083572500998F3E87C207C18363731C
:1044CC00F600328742074183814763E4E7000145E8
:1044DC008280835605000356A5008507758E5441CE
:1044EC00B29683C606002380D50083560500850648
:1044FC002310D500D9BF11458280411122C426C298
:10450C004AC006C62A890144B71400406318240126
:10451C00B2402244924402494101828083A7840C18
:10452C0013052003050493E7270023A4F40CA52806
:10453C0083A7C40C130520031374F40F93E727000F
:10454C0023A6F40C8D20D9B7411122C43714004096
:10455C008327C40C06C68D4593E717002326F40C5D
:10456C000545EFF0CF888327C40CB2408D4593E707
:10457C0027002326F40C2244094541016FF02F87B4
:10458C0037E700E085663D652320D710B7F700E0DC
:10459C001305F5A588CB8145CCCB2320D710130769
:1045AC00F00298C382809387C18794439843158FF8
:1045BC00E36EA7FE82801387C1871C4385071CC34B
:1045CC00B7F700E023A20700730020300111680048
:1045DC0006CEEFF04FA683C7118899C3A38001883C
:1045EC003245EFF04FA7B735004083C7B5401D47A4
:1045FC00636DF70083C7B5402146938585401D8EBA
:10460C00420641821385C1465535F24005618280D0
:10461C004111130600209385C1261385C14606C699
:10462C0022C42D3305661306068097E5FF1F93857C
:10463C00A56D13850126193B371400408327840A86
:10464C008D451305002093E707202324F40AEFE09F
:10465C00BFEF8327840A85451305001093E70710E5
:10466C002324F40AEFE05FEEEFF08FA995450545A2
:10467C00EFF02FACB2402244B7E700E03707000858
:10468C0023A0E7104101828098418D476311F70206
:10469C008147B736004001A8D8413E970347070031
:1046AC0085072384E64003D78500E3C7E7FE8280B5
:1046BC0083D781896399A700239DB188239EC188E4
:1046CC00239FD188828017250200130525846F0053
:1046DC0022582A86B305B04017250200130505851C
:1046EC006F00624503574500011106CE83D78189BF
:1046FC006315F702C167F91723ACF18823AE018863
:10470C0085471306F100854513055030A307F100CA
:10471C00EF70112DF2400561828017150200130510
:10472C00657EEF00E252FDB73D899307F5FF154713
:10473C006361F710171702001307477B8A07BA97B4
:10474C009C43411106C6BA972E8582871715020025
:10475C001305457FB24041016F00824F03C725000E
:10476C009947631DF702B2404101ADBF03C7250055
:10477C0095476315F702C16783D68189F91703D76B
:10478C00A5006380F6023A85EF70F1501715020010
:10479C001305457CEF00C24B23A40182B2404101BA
:1047AC008280239CE18883D7E500514603C5918123
:1047BC00239DF18883D70501239EF18883D725019A
:1047CC0093050002239FF188EF0070100966130611
:1047DC000690A14503C59181EF00700F75BF1715A9
:1047EC00020013056578BDB783C525009147639713
:1047FC00F500171502001305A578A9BF9947639713
:10480C00F500CD35854723A4F18249BF9547639ABE
:10481C00F50083471500F1FF171502001305057805
:10482C0015BFB240171502001305C57741016F0083
:10483C008230828001119397050122CC06CE26CAC4
:10484C00C1872E8463DE070003C59181192111C134
:10485C00412E2165218DF2406244D2440561828053
:10486C0093F705029DC703D581891307F5FF42070E
:10487C00C1674183F51763EBE7009307700F03C61D
:10488C0091816C002316F100EF505068134504021F
:10489C00D9B793F7150091CF17E6FF1F1306C6087B
:1048AC009385015703C59181EF70816913451400FD
:1048BC005DB793F7850099CF83C7918113074006A5
:1048CC0081465146A14503D58189EF70C1601345DE
:1048DC00840051B793F705010145B5DF93874182F9
:1048EC009C4305476389E70081C70D476372F7084E
:1048FC00134504018DB703D58189EFF03F9E19E96B
:10490C00C16703D78189F917E314F7FE13850126D4
:10491C008D34F9BF138501260D34AA8471D903D5C2
:10492C008189EF10B00F9307C5FFC207C18313072E
:10493C003006636CF70875152390A18A83D7018A1A
:10494C0063F4F4002390918A13850126EFF0FF9E07
:10495C0083D7018A6360F5081386018A93858147A2
:10496C0013850126DD341375F50F23A2018849F157
:10497C0003D6018A01478146ED4503D581892399E8
:10498C00C188EF50306923AAA18825CD03D621898F
:10499C009385814797C0FF1FE78040790146938537
:1049AC00018903D58189EFF0FF9431C58D47ED4521
:1049BC001385018923A2F182EF6060250946C14568
:1049CC0003C59181EF00A07025B79307A00F23902A
:1049DC00F18AADB7938441889840A947E3EEE7F696
:1049EC001146C14503C59181EF00606E9C4085075F
:1049FC0023A2F188F5BD854723A2F1822390018A79
:104A0C0075BF894723A2F18255BF0111170500001C
:104A1C00130585E206CE22CC26CAEF00103099474A
:104A2C000544938491812315F1009307803E23164E
:104A3C00F100A30481002380A400EF60D04D130685
:104A4C009100854513055030EF70817917E6FF1FF3
:104A5C001306C6EFD14513057030EF7061781386DD
:104A6C00C1819D4513056030EF7081771306A1005D
:104A7C00894513051031EF70A17670008945130537
:104A8C002031EF70E1759305000A0D45EF20306180
:104A9C009305000A1145EF209060F967938707246E
:104AAC003EC670008947914513057040A303F10081
:104ABC0023048100A304810023050100EF60A152AF
:104ACC0013067100854513050040EF60C15130009D
:104ADC00854513051040EF6001511306A100854573
:104AEC0013052040EF6021501306910085451305F6
:104AFC005040EF60414F7D55EF50F0147D55EF80E5
:104B0C00702DEFE01FFF17050000130525B8EFF01F
:104B1C004FF717E6FF1F1306E6E1D5450145EF50A9
:104B2C003001C16713878189F9171CC32322070041
:104B3C0013858188EF50812303C504008545152119
:104B4C00F2406244D244056182804111014506C69F
:104B5C00EFD03FE41305800497C0FF1FE780A0BE91
:104B6C0085457D55EFE05F9E85457D55EFE03FA87F
:104B7C00371700408327870A8D451305002093E7DC
:104B8C0007202324F70AEFE03F9CEFE07FD71715AF
:104B9C00020013052567EF00A20BEFF02F8CEFF04E
:104BAC006F9FEF7091119535EFF01F9AEFF05F9DAD
:104BBC00EFF01FA62945EFF05F9497C0FF1FE78029
:104BCC00801323AC05FE1C4191E7010001000CC1D0
:104BDC008280BA8703A787FF6DFF23ACB7FE828064
:104BEC001DC18346E5FF1307F00F9147639EE60056
:104BFC00411106C697D0FF1FE780E038B2408147CD
:104C0C003E854101828095473E85828001E90145C0
:104C1C0082800145B2402244410182809565411158
:104C2C00938505D022C4C98D2A842105C20542056D
:104C3C00C181418106C697D0FF1FE780602871D9DA
:104C4C00FD5723200500231285002303F5002105C1
:104C5C00D1B71387418A1C43411122C426C24AC0D2
:104C6C0006C601440149BA8489E7A165952D0DC496
:104C7C0001A803C7E7FF6318A7021DC8A165D524C7
:104C8C009840832784FF6317E40223A2F18AFD571F
:104C9C00232C04FE230FF4FE2285B24022449244BE
:104CAC0002494101828011E03E8983A787FF6DBFD5
:104CBC003E84E5BF232CF9FED9BFA1CD411122C4FE
:104CCC0006C62A849707002083C797392E856375FB
:104CDC00F400894763E8870021370D45B240224430
:104CEC004101828083A785FF99E703C7E5FF9307FE
:104CFC00F00F6305F700ED351545CDB7238F85FE15
:104D0C001385418A7D3D22852244B240A165410133
:104D1C0089AC1545828023A2018A82809387C18B3E
:104D2C009C4399E33E85828003D727006316B70026
:104D3C0003C70700E308A7FEDC47E5B7BDCD7971D3
:104D4C0022D406D626D24AD04ECE01444147B3D700
:104D5C008540858BB1CF1205314722953305E5028D
:104D6C009387C18A03A907008544B3948400C204C5
:104D7C00C180BE892A990327090011C70325490060
:104D8C002EC60297B24531473304E40283A70900CB
:104D9C003E941C4489E72320090023220900B250C9
:104DAC002254A58D02599254F2492E854561828078
:104DBC000504E31EE4F88144DDB72E8582804111A1
:104DCC001397050122C406C626C24AC041872E8409
:104DDC00635E0700BD3D11C12135A1673D8C228565
:104DEC00B24022449244024941018280EDD9AA8703
:104DFC0001474146B356E440858A9DCA9207BA974B
:104E0C00B146B387D7029386C18A03A906008544AD
:104E1C00B394E400C204C1803E99832709000325A2
:104E2C00490082972320090023220900258C45BFC5
:104E3C000507E311C7FC8144D5BF97070020938772
:104E4C00671E9C53411122C406C61384C18299C7A4
:104E5C0082971C403E9523A6A18229A09387418B63
:104E6C009C43FDF70840B74703009387D73F3305B2
:104E7C00F502B7A72600938737ECB24022443E9543
:104E8C0023A6A1824101828079C99387418B9C43DF
:104E9C00797122D426D24AD04ECE52CC56CA5AC898
:104EAC0006D65EC63A8AB689328BAE8A2A89829732
:104EBC009387C18A9843BE840144B146C147B30B62
:104ECC00D40233067701104251E6C165938505F093
:104EDC00414597D0FF1FE780A0FE1DE597070020F6
:104EEC00938747149C5B2D4589C711458145829753
:104EFC002D45B250225492540259F249624AD24A78
:104F0C00424BB24B456182809387C18B98431DEF16
:104F1C0023AEA18A230005009C4005473317870068
:104F2C0023260500232465012311E50023224501D6
:104F3C00DE9723A0270123A2570123A44701014593
:104F4C00E38909FA238089006DB73E875C47F5FF3A
:104F5C0048C7C9B70504E314F4F6214559BF094500
:104F6C0082809707002083C7B70F637FF5001387F4
:104F7C00818A9317150008433E9583570500DD8DF4
:104F8C002310B500014582800D45828097070020D3
:104F9C0083C7170D6371F5021387818A9317150068
:104FAC00084393C5F5FF3E9583570500FD8D2310EF
:104FBC00B500014582800D458280130705FF1377EC
:104FCC00F70FFD4763E5E70AB146B306D5029387B1
:104FDC00C18A984389473697184359CB011122CC83
:104FEC004EC60544935945003D893315A40013144E
:104FFC000501418026CA4E85AE84A2854AC806CEDC
:10500C00313B2A89814721CDA2854E854137938733
:10501C00418B9C4382979707002083D727093387BE
:10502C0097022A84814613060064B3B797021305CE
:10503C000732B335E500BE95EFF0016BB307850081
:10504C0097060020938606063E87D44263E4A700A9
:10505C0063E4D7003387D7402324E9008147F2402B
:10506C006244D2444249B2493E85056182808947F7
:10507C003E858280011126CA06CE22CC4AC84EC675
:10508C00BD47894463EDA70231473307E502938797
:10509C00C18A9C438944BA979C4395C305443314F5
:1050AC00A400420441802E890145A2858539AA8934
:1050BC00814411C5A2850145D13D23A42901F240AB
:1050CC00624426854249D244B249056182809707E1
:1050DC00002083C7F7F86364F50001458280011155
:1050EC009387418B56C283AA070006CE22CC26CAD0
:1050FC004AC84EC652C4638D0A0A170A0020130A06
:10510C006AFA83244A00B74736FE938707C8AE89EC
:10511C009705002083D585F9BE94B387C5022A84F0
:10512C0032898146B3B5C50213850732B337F50012
:10513C0013060064BE95EFF0215B63EBA406829A24
:10514C009705002083D585F6B3872503AA8413061B
:10515C0000648146B3B5250313850732B337F500D8
:10516C00BE95EFF06158B3079500BE8403274A0043
:10517C0063E4A70063E4E700B384E740CE852285AF
:10518C00713E01C504C505452DA0936504F0C2050B
:10519C00C181414597D0FF1FE78080D205E5970775
:1051AC000020938727E89C5B81C7A28511458297D5
:1051BC000145F2406244D2444249B249224A924AE1
:1051CC00056182809387C18B9C438DE323AEA18ABA
:1051DC0085472326050004C52311350123008500CE
:1051EC00A300F5002322050079BFBA87D84775FFC5
:1051FC00C8C7F9BF49C9797122D426D24AD04ECE3C
:10520C0052CC56CA5EC662C466C206D65AC8368925
:10521C00328AAE89AA844144314C938AC18A854C26
:10522C00930B0003330B840303A70A005A971C4308
:10523C00B1E79375F400B395BC0013554440C20517
:10524C005286C1811375F50F59350DC983A70A0014
:10525C000145DA9784C323A23701630409002300B4
:10526C008900B250225492540259F249624AD24AED
:10527C00424BB24B224C924C456182800504E313A5
:10528C0074FB2145F9BF09458280411122C426C215
:10529C004AC006C62A842E89B284153DCA85228549
:1052AC00EFF0DFA705CD9705002083D525E0B38768
:1052BC0095022A84130600648146B3B595021385C2
:1052CC000732B337F500BE95EFF0014248C00145F7
:1052DC00B240224492440249410182802145CDBF13
:1052EC00411122C426C24AC006C62A892E84EFF078
:1052FC00FFA2AA8419C123110500A2854A85793120
:10530C009707002083C7C7D56397270183D7018BE5
:10531C005D8C2398818A014591E01945B240224465
:10532C0092440249410182809307F00263E6A7048C
:10533C004111B14722C43304F50226C29384C18AB9
:10534C009C4006C6A297984389470DC39377F500F6
:10535C008545B395F500C205C181118151379C403B
:10536C00A29723A0070023A207008147B240224442
:10537C0092443E854101828089473E85828041115D
:10538C0006C622C4EFF09F9911E50145B2402244B4
:10539C00410182809387418B9C43004582979707FC
:1053AC000020938727D06368A402D843B74636FE03
:1053BC00938606C83305A4403697E378E5FC1307BB
:1053CC000064B335E50203D6870081463305E50258
:1053DC00EFF0813165BFD8433A94C1BF411106C685
:1053EC0023ACA18A0295B2409707002023A6A7C838
:1053FC00014541018280994763E9B7008A05970707
:10540C000020938767C8BE9588C182804111714680
:10541C00814517050020130525C706C623AE018A52
:10542C0023AC018A23AA018A97C0FF1FE78080D38F
:10543C0013068002814517050020130565C297C02D
:10544C00FF1FE78020D2EF7081109707002083C7E1
:10545C00D7BE13D527008D8B3E958D473305F502AE
:10546C00854539051375F50F97070020238BA7BECB
:10547C0099473305F5021305052497D0FF1FE780E4
:10548C0020A423A6A18A59C59947170600200346D4
:10549C0046BD3306F60281451306062497C0FF1F4E
:1054AC00E78040CC9387C18A9C439387072423A031
:1054BC00F18C170700200347C7BA0A07BA9723A431
:1054CC00F18AEFF05F8505239387018C944397074E
:1054DC00002083C7F7B813972700369717060000EC
:1054EC001306068610C3138717001377F70F0A07E6
:1054FC003697170600001306C68C10C313873700A7
:10550C00890793F7F70F8A0797050020A38AE5B45C
:10551C00B69790C3B240410182809707002083C7A1
:10552C0037B4170700200347C7B363F1E7021387AB
:10553C00018C18439386170017060020A302D6B2DD
:10554C0093962700369708C33E8582809307F00F09
:10555C00E5BF1C416388071641777D8FB706002095
:10556C0089476312D71603574500630E0714411180
:10557C0022C419462A849305F00F690506C697C004
:10558C00FF1FE78040C805478D476308E5121C44A0
:10559C0081CB5858994763020712185C630F0710A8
:1055AC001306C0038145170500201305A5A797C056
:1055BC00FF1FE78020BB1306C003A2851705002040
:1055CC00130545A697C0FF1FE78040B617070020BC
:1055DC00035707A6970700209387C7A419E713075B
:1055EC000010970600202395E6A417070020034718
:1055FC0047A411E7054797060020238CE6A217075E
:10560C000020035727A311E76D479706002023932B
:10561C00E6A2170700200347D7A111E71547970605
:10562C000020A388E6A0170700200347C7A011E7B6
:10563C000547970600202380E6A0170700200347A4
:10564C00979F19E703C7F70097060020A385E69EEE
:10565C00170700200347479E11E7354797060020A0
:10566C00238CE69C170700200347579D19E7130767
:10567C00800297060020A383E69C170700200347AF
:10568C00B79B19E71307D00297060020A386E69A6A
:10569C000347840119E71307C00397060020238FE3
:1056AC00E6989C5791C7829797070020239EA79A4C
:1056BC00FD57A38BF1A0993B8147B24022443E8514
:1056CC004101828089473E85828001114EC697092F
:1056DC0000209389299D83A7090006CE22CC26CAD7
:1056EC004AC852C4829713090064B335250303DA00
:1056FC0089008146528633052503EFE0F17E97073A
:10570C0000209387E795804FAA8401456306940295
:10571C0033858440636E940003A54900528681460C
:10572C00B335A9023305A902EFE0117C018D269552
:10573C009707002023A29794F2406244D244424936
:10574C00B249224A05618280011122CC0A852E843D
:10575C004146970502009385256706CEEFF041324E
:10576C00180806043A94035504FF9707002083D7C2
:10577C000794F2406244AA9737450F00130505249D
:10578C003355F502056182809707002083D7279255
:10579C0051471D45637CF702794719456378F70239
:1057AC001307200315456373F7021307B004114563
:1057BC00637EF700130740060D456379F700130766
:1057CC00600909456374F70013B5B70F82800111A6
:1057DC0022CC06CE2A842EC6EFF02FE6B245F2403C
:1057EC00818D33A5A502229562441375F50F0561D1
:1057FC008280011122CC06CE2A842EC6EFF0EFE374
:10580C00B245F240818D33A5A50222956244420532
:10581C00418105618280011122CC06CE2A842EC6DC
:10582C00EFF0AFE1B245F240818D33B5A502229580
:10583C0062440561828097F7FF1F9387A77E985774
:10584C0039CB411122C426C206C6BE840297170763
:10585C000020035767812A8415CBBA876373A7008E
:10586C00AA87C207C183BA866373E400A286C20604
:10587C00C182958F5147635BF700DC5491C38297CB
:10588C00EF00917A97F7FF1F2390877EB240224456
:10589C00924441018280828097F7FF1F938787781B
:1058AC00DC57011106CEAA8581C72AC68297B2455C
:1058BC00D1C19C410545A5CFDC41B5CB83D7850033
:1058CC00BDC783D7A500A5C783C7C500ADE34146B7
:1058DC0017F5FF1F1305057D97C0FF1FE780008597
:1058EC0097F7FF1F9387077C9C4323AAF18A97F7AE
:1058FC00FF1F83C7B7748DE79307800217F5FF1F4F
:10590C000355C57A3305F50237460F0013060624F6
:10591C0081468145EFE0515D97F7FF1FA380A77289
:10592C00170500001305A5DAEFF05FAB0145F24057
:10593C000561828097F7FF1F83C727701397870134
:10594C0061876354070497F7FF1F23A9077297C752
:10595C00FF1F938767BE17F7FF1F2325F7747D572B
:10596C0097F7FF1F23A2E774B7873200938727A10D
:10597C0097F6FF1F23ACF67297F7FF1F238A077267
:10598C00B7C7004023A4E726A1BF13F7170005CF24
:10599C00B7872003938707D017F7FF1F2328F770CB
:1059AC00B707C0A817F7FF1F2320F77097C7FF1F73
:1059BC009387A7BB17F7FF1F2326F76E97F7FF1FD9
:1059CC002388076E31BF617797F6FF1F2390E66E31
:1059DC0081CB9307003217F7FF1F231AF76CC9B757
:1059EC0093072003CDBF011122CC17F4FF1F130422
:1059FC006463084406CE26CA4AC801E90545F2404C
:105A0C006244D2444249056182805C58E5DB185CF3
:105A1C0075D77000854582971844B247E300F7FEAE
:105A2C009305E00417F5FF1F0355856097C0FF1F12
:105A3C00E780004917F7FF1F2324A76461D117F6ED
:105A4C00FF1F0356E65E9305F00F97B0FF1FE7802C
:105A5C006071814417F9FF1F1309896097F7FF1FC5
:105A6C0083C7275D0326090263C1F402328597C000
:105A7C00FF1FE7804051014597F7FF1F23A20760E6
:105A8C0097F7FF1F23A007609DBF97F5FF1F83D5D6
:105A9C00255AB38795020844185C898185043E9584
:105AAC0008C2029765BF011156C297FAFF1F938A6D
:105ABC006A5783A78A0022CC4AC84EC606CE26CA8D
:105ACC0052C45AC0AA892E8432896385072203A73F
