:040000006F20000C61
:10000400000000000000000090000020A204002076
:10001400A9BDF9F3900000200000000000000000DA
:10002400900000209000002000000000000000006C
:10003400BA3A000000000000900000200000000018
:1000440090000020900000209000002090000020EC
:1000540090000020900000209000002090000020DC
:10006400900000209000002090000020AC050020AB
:1000740096050020900000209000002090000020B1
:1000840090000020900000209000002090000020AC
:1000940001A04111B7170040985F3AC6945F3247F8
:1000A400E39CE6FE32454101828073270080218B68
:1000B4009387018609CB7327008023A0E1869843A8
:1000C4005D9B731007800F100000371700409306E4
:1000D40070052300D704930680FA2300D7040F1079
:1000E40000008346B70493F6F60DA305D704230056
:1000F4000704732600809443A18AD18E73900680EE
:1001040023A001860F10000093760502638406186D
:100114000347A700118B25E773270080218B09CBA8
:100124007327008023A0E18698435D9B73100780AA
:100134000F10000037170040930670052300D70402
:10014400930680FA2300D7040F1000008346A7000B
:1001540093E646002305D70023000704F326008016
:100164009843218B558F7310078023A001860F10AD
:1001740000001307004B010001007D176DFF73277A
:100184000080218B09CB7327008023A0E18698434C
:100194005D9B731007800F10000037170040930613
:1001A40070052300D704930680FA2300D7040F10A8
:1001B40000007D892314A700010001000100010053
:1001C40023000704F32600809843218B558F731076
:1001D400078023A001860F10000073270080218B65
:1001E40009CB7327008023A0E18698435D9B73109D
:1001F40007800F1000003717004093067005230096
:10020400D704930680FA2300D7040F1000000F10C0
:100214000000B726004013061005A383C680230000
:100224000704F32600809843218B558F73100780B1
:1002340023A001860F10000073270080218B09CBB7
:100244007327008023A0E18698435D9B7310078089
:100254000F10000037170040930670052300D704E1
:10026400930680FA2300D7040F1000008346B704D6
:1002740093E60608A305D704230007047327008028
:100284009C43A18BD98F7390078023A001860F1004
:100294000000828093760504638B06140347A7004D
:1002A400418B25E773270080218B09CB73270080BE
:1002B40023A0E18698435D9B731007800F10000014
:1002C40037170040930670052300D704930680FA7D
:1002D4002300D7040F1000008346A70093E606010D
:1002E4002305D70023000704F32600809843218BBD
:1002F400558F7310078023A001860F100000130789
:10030400007D010001007D176DFF73270080218BA4
:1003140009CB7327008023A0E18698435D9B73106B
:1003240007800F1000003717004093067005230064
:10033400D704930680FA2300D7040F1000009376A5
:10034400F50193E606042314D7000100010001001F
:10035400010023000704F32600809843218B558F66
:100364007310078023A001860F1000001307600498
:100374006310E50473270080218B09CB7327008069
:1003840023A0E18698435D9B731007800F10000043
:1003940037170040930670052300D704930680FAAC
:1003A4002300D7040F100000B72600400946B5B556
:1003B40073270080218B09CB7327008023A0E1865B
:1003C40098435D9B731007800F100000371700409F
:1003D400930670052300D704930680FA2300D704FC
:1003E4000F100000B7260040130620053DB5732703
:1003F4000080218B09CB7327008023A0E1869843DA
:100404005D9B731007800F100000371700409306A0
:1004140070052300D704930680FA2300D7040F1035
:1004240000008356870093E6060C2314D700C5BB4F
:100434004111814601468145114506C6C924F32769
:100444000080A18B9386018689CBF327008023A0AB
:10045400F1869C42DD9B739007800F100000B71754
:100464000040130770052380E704130780FA2380F4
:10047400E7040F10000003C7670413671700238302
:10048400E70423800704732700809C42A18BD98F43
:100494007390078023A001860F100000B240410131
:1004A40082808146014681451145912CF3270080C5
:1004B400A18B1387018689CBF327008023A0F186C3
:1004C4001C43DD9B739007800F100000B71700409A
:1004D400930670052380D704930680FA2380D704FB
:1004E4000F100000FD562396D70223800704F3263D
:1004F40000801C43A18BD58F7390078023A00186B5
:100504000F100000F3270080A18B89CBF327008014
:1005140023A0F1861C43DD9B739007800F1000001D
:10052400B7170040930670052380D704930680FA1A
:100534002380D7040F10000083C6670493E61600D7
:100544002383D70423800704F32600801C43A18B54
:10055400D58F7390078023A001860F10000001A09F
:10056400BD473305F50201007D1575FD82804111FB
:1005740022C426C206C6AA84014463179400B2406A
:10058400224492444101828005041305803E4204C2
:10059400C13F4180DDB7B71700401307000323882C
:1005A400E702854723A8F1867300203037370040DF
:1005B400834747409946BD8B6385D704314763859C
:1005C400E70011476391E704B735004083C7A540AE
:1005D40003C6A5401385413693858540973000E0D6
:1005E400E780A027420541810DED85472146C1459D
:1005F40003C59181A382F188974000E0E780A0FEC3
:1006040019A08347574073002030834687408507ED
:1006140093F7F70F2382D1888346A740E3E7D7FEF9
:10062400E9B7814737370040C5BF411106C6AD253C
:10063400973000E0E780004A973000E0E780E0323E
:10064400FDB72303048015472303E480010023023C
:10065400A480828083076480E3CE07FE23030480A2
:10066400828083076480E3CE07FE03454480828052
:1006740083076480E3CE07FE2302A48082804111B5
:1006840026C44AC24EC006C61377F50BAD47AA89E5
:100694002E8995446306F70019456537653F8D44F7
:1006A4004E854537FD59FD1463983401B240A24488
:1006B4001249824941018280135509011375F50FCE
:1006C400453F2209CDB7011126CC06CEB704080058
:1006D40051371545BD37713769372AC6A53F3245AD
:1006E4009377150089EB136515001375F50FF24028
:1006F400E24405618280FD14E9FC0145CDBF3971F6
:1007040026DC4ADA4ED852D656D45AD25ED006DE09
:1007140062CE66CCB7E700E07D5783AA070022C605
:1007240003AA470023A0E71823A2E718B71700403D
:10073400130770052380E704130780FA2380E70476
:1007440083C74704930B75FFB684E20793FBFB0F43
:100754008546AA892E8B328937240040E1870157C8
:1007640063FA76016308D500894613070002631310
:10077400D5000157D98F93F7F70FB71C0040238298
:10078400FC0411472303E4801305F00F5D3D094C7D
:10079400D135636D7C11B7050700DA9537870700FB
:1007A400795563F2E504B3879500636EF702370B5E
:1007B4000800A94733EB65016399F90689E481448C
:1007C400513D26850DA0DA850945553D05090345AA
:1007D400F9FFFD14050B693D81C49377FB0FFDF709
:1007E400DD3569FD7D55B71700401307700523807B
:1007F400E704130780FA2380E70403C74704418B07
:100804002382E704F250B7E700E023A0571123A2A4
:100814004711E25432445259C259325AA25A125B15
:10082400825B724CE24C21618280A5476395F90694
:1008340085691309F00FB3069900B3742B01B694BC
:100844001349F9FFB3749900856B33796901416BDE
:100854009387F9FFB3F7270199E363FC340193D934
:100864004900C147E3E637FF99BF0569C1697D19AE
:10087400D9B71305800D63886901130500026384E9
:10088400790113051008CA85DD3B353D21DD4E99FC
:10089400B3843441D9B7DA852D45D533CA94E300FE
:1008A40099F205097D3BA30FA9FED5BF9387F9FFF4
:1008B40093F7F70F6361FC0C83C71C04130730081C
:1008C400631FF70437070800636BEB04B3079B004F
:1008D400B706100063F5D704334BEB0089476393E5
:1008E400F9068980D549E38C04ECDA850945413B56
:1008F40011090327C9FF91472320E480030764807B
:10090400E34E07FE23033481FD17EDFBFD14110BA9
:1009140081C49377FB0FE9FF7D3371F5E1B5B71718
:10092400004003C75704B70708001377070219E309
:10093400B78707007955E378FBEA33079B00E3FFA9
:10094400E7F855B58547E382F9F2DA852D45053B8D
:100954009389F4FFE38504E6293393F7390091EB97
:10096400832604800327090093074900E39AE6E4F9
:100974003E89CE84F1BFB5476396F9001305900B09
:10098400C93135BDB1471305B00AE38BF9FE994768
:100994006391F904B7050800B365BB002D45C53163
:1009A40081448D4BA1497539639674018327048072
:1009B4002320F9008504E39834FF83270480131768
:1009C4002B01635507002312F900D5BB2322F9003C
:1009D400FDB39D476399F90281451305B004453180
:1009E400BD442320090023220900FD599D3993F7B2
:1009F4007400CA9703C70700FD14398D2380A7002C
:100A0400E39634FF6DBBA1476392F9046D398144C9
:100A1400630D0B008D479304C0036308FB0093042C
:100A2400000563048B01930440041375C507E308B0
:100A340095D81945393139390545213126850D397E
:100A440009453D314931E31C05D669BB914763999A
:100A5400F90013056006F536F53E130590090DB748
:100A6400E38F09D4F154A9BB19CD91CD09CE8147A7
:100A74003387F500834607003307F5008507230015
:100A8400D700E317F6FE828019C991C909CA9105F6
:100A940083A7C5FF11057D16232EF5FEC5BF8280F1
:100AA40001C919C62A960505A30FB5FEE31DA6FEC6
:100AB400828081473307F5000307070019E33E8569
:100AC40082808507C5BF01112E8626CAAA84131504
:100AD40006019305F004418122CC06CE32C6EF0014
:100AE400F0512A8401C53246A685BD3F2285F240D5
:100AF4006244D24405618280854715C18DC105C217
:100B04008147B306F5003387F50083C60600034723
:100B140007006398E6008507E315F6FE85473E85E2
:100B240082808147EDBF9307F6FFBE952A96631333
:100B3400C5008280FD1583C715000505A30FF5FECA
:100B4400FDB7AA87014581CF09CE3E96850703C725
:100B5400F7FF6317B700E39BC7FE054582808280D9
:100B64000145828079719387018C22D4804306D613
:100B740026D24AD04ECE52CC56CA5AC85EC65DCC96
:100B8400B7C4C901014B9389818B9384F437174A05
:100B94000000130AAAED974A0000938AEAF0174965
:100BA40000001309A9F48357240085E35C44631B04
:100BB4000B0023A0F18C832BC4002285EF0070501E
:100BC4005E84B9A82326FB00FDB783A7090082979A
:100BD4001C443307F5406376F500032749001D8F55
:100BE4002A9763E0E4089747000023A707EC83559E
:100BF400240003450400974000E0E78000885C403F
:100C04005844A1CB0C4403264900AE97BE8663E446
:100C1400B70063E4C700B386C74014C4228B3A8488
:100C240059F097470000938727E89C4B0947637066
:100C3400F706F917174700002320F7E8B2502254AB
:100C440092540259F249624AD24A424BB24B45612C
:100C5400828063150B0023A0E18CB1BF2326EB0037
:100C640099BF03274A0209CF63EFA7003385A74042
:100C740083A70A016376F5009747000023AEA7E235
:100C8400228B404471BF03274900BA97C5B79747E1
:100C9400000023A307E25DB7411122C417440000FA
:100CA400130404E31C4006C626C24AC091C78297B7
:100CB4009747000023AE07E09747000083C717FB60
:100CC400858B97440000938424FA95C397470000CA
:100CD400A38E07F883C774001547637AF700052BC2
:100CE40083C77400F5178A07A2979C4382971C4414
:100CF40091C382971389C18A03270900174600000C
:100D0400034696DA9747000083C707DA93961700DD
:100D1400BA9683D60600C5CE9747000083C7C7D8C6
:100D240063E1C70C97470000238007D81C406395F4
:100D340007129747000083C7B7F391CF83C77400A6
:100D440093F7F70F89EB97470000A38307F29750B7
:100D540001E0E780A0BF9387818B9C43638E070EDD
:100D640097470000938787D8DC4317470000232563
:100D7400F7D4CD3B97470000938747CFDC53E9CFA7
:100D840017470000130747D2184B9747000083C743
:100D940037CF6363F70C83C774001547636EF70A94
:100DA4009747000083C7C7F0918BDDE7032609004E
:100DB4009746000083C656CF63C6D70A2244B24082
:100DC400924402494101175302E0670063F4850726
:100DD40093F7F70F974600002388F6CCE3E4C7F2B5
:100DE40025BF86073E978355070023100700239AE3
:100DF400018A9387418C9C43174500000345C5CA6B
:100E040013172500BA979C43829783D7418B1747C2
:100E14000000034767C993C7F7FF7D8D9317170039
:100E2400032709003E97835707005D8D2310A70011
:100E34009747000083C747C791C785071747000036
:100E44002304F7C617470000034707C69747000067
:100E540083C797C5E378F7ECB24022449244024931
:100E640041018280139717003297035707006DF7EB
:100E7400850799B7AD6737C70040BD072326F7201C
:100E84000F10000097470000938707C2C84F8327BD
:100E94008726BD66BD0693C7F7FF99836A05232697
:100EA400D7205D8D82804111B7170040985F3AC604
:100EB400945F3247E39CE6FE32454101828013058C
:100EC400F00F8280011197470000938727E622CC18
:100ED40003A4070C26CA06CE2AC42EC6854419E4E8
:100EE4000145F2406244D244056182808347910007
:100EF40003471400858B6304F7000044CDB71946FB
:100F04009305A10013052400C53EE31895FE05458D
:100F1400C9BF138701991C439306001094C30100B1
:100F24000100010001001C4323A0070083461500B3
:100F340003482500A2064208C29603480500C2964B
:100F4400034835006208C29694D783465500034887
:100F54006500A2064208C29603484500C2960348AB
:100F640075006208C296D4D7834695000348A5004D
:100F7400A2064208C29603488500C2960348B500FB
:100F84006208C29694DB8346D5000348E500A206B6
:100F94004208C2960348C5000345F500C29662059F
:100FA400AA96D4DB83C6150003C52500A206420514
:100FB400AA9603C50500AA9603C535006205AA963C
:100FC40094CF83C6550003C56500A2064205AA96C0
:100FD40003C54500AA9603C575006205AA96D4CF39
:100FE40083C6950003C5A500A2064205AA9603C5BB
:100FF4008500AA9603C5B5006205AA9694D383C654
:10100400D50003C5E500A2064205AA9603C5C5009E
:1010140083C5F500AA96E205AE96D4D3D443F59AD7
:10102400D4C3D44393E61600D4C3944393E6160082
:1010340094C3BA879443D842058B59E3984E01452B
:101044002300E6009843184F2183A300E600984349
:10105400184F41832301E6009843184F6183A3018D
:10106400E6009C43D84F2302E600D84F2183A30215
:10107400E600D84F41832303E600D84F6183A303DE
:10108400E60098532304E60098532183A304E60062
:10109400985341832305E60098536183A305E60032
:1010A400D8532306E600D8532183A306E600D85379
:1010B40041832307E600DC53E183A307F600828023
:1010C40001008DBF138741991443411122C49C5ED2
:1010D4004AC006C6998326C2858B3A84138901992E
:1010E400D1C79C5E97440000938404B893F7F7F942
:1010F4009CDE17470000034787B793070008631B6C
:10110400F700832709009C4393F70704174700005F
:10111400230FF7B483C7040093F707048DC39387A1
:10112400818B9C4382979747000023A7A7B483C76A
:10113400040093F7F70B174700002307F7B283C7A0
:10114400440093F707049DE3854717470000A30F66
:10115400F7B09387019A9C43096798C7130700FC6B
:10116400974600002384E6B0D844F8D31C40985F27
:101174001183058B09CB985F3D9B98DF0547974604
:1011840000002385E6AE985F1D83058B11CB985F25
:101194001377F7F798DF8547174700002308F7AC64
:1011A40083270900D8430583058B19C7D843759B4A
:1011B400D8C3D843799BD8C3B2402244924402494D
:1011C40041018280397106DE16DC1ADA1ED82AD66D
:1011D4002ED432D236D03ACE3ECC42CA46C872C69B
:1011E40076C47AC27EC0F93DF250E2525253C253E1
:1011F4003255A255125682567247E2475248C248A7
:10120400324EA24E124F824F2161730020309387D9
:10121400019A944397470000938707A503C70700E3
:10122400058B11CB97470000238207A49747000042
:10123400A38E07A2828003C71700058B65F7F852B7
:1012440071FF83C75700DDB713884199032708004E
:101254001C5F9583858BD1E709C61C5BBD83230086
:10126400F60085CA83270800985B460793576701F1
:101274006356070093E707C0C207C18303970600BC
:10128400C207C18709C7BA970947B3C7E7022390C2
:10129400F60085CD834715008DCB9746000083C6A5
:1012A400069D93F606041387970089478DCA3A95DD
:1012B40003470500854699471376F7066311D6025E
:1012C40062076187B947634C0700832708009C5F66
:1012D400ED838D8B17470000A30DF79881473E855A
:1012E40082808547EDBF411122C406C61384019A4A
:1012F40018402DE9AE877453FDFE3E85B2859747AD
:10130400000023840796974001E0E78060399387C3
:1013140041999C43B70680009843558F98C3D8578A
:10132400719BD8D797470000A38207949747000082
:10133400A38C07921C40094798C314401747000028
:101344001307879283472700858B89EB83473700F0
:10135400858BD9C397470000238A0790B240224463
:10136400410182808D47631EF500938741999C4318
:10137400B70680009843558F98C3D857719BD8D728
:101384006DBF8547E31BF5FA5447F977FD17F58FD1
:101394005CC70F1000001C40096798C7130700F8CA
:1013A400174600002304E68C138741991043184222
:1013B40031830D8B11E713076019F8D3D4C7B5BF78
:1013C4001842094631830D8B6315C7001307E043A8
:1013D400EDB71307E01BD5B7FC52ADF741B75D710C
:1013E400A2C4A6C22A84130680022800AE849305F0
:1013F400100886C6CAC04EDE52DCEFF06FEA3545EF
:10140400974001E0E7802066138341998327030016
:101414009376F41F138E819A23A40700984B938E1E
:10142400019A370FFCFF1367F70398CBF84F1305A6
:1014340010F8B7020400137707E0558FF8CF9843EC
:10144400F576FD16758F98C39843B706330093035A
:1014540080251377F7E798C3984311497D1F1377C5
:10146400F7E71367071098C303270E008549930F06
:1014740080021C47D58F1CC783A70E001307900D4D
:101484003400B8CB014793553700A69583C70500B0
:1014940013767700B3D7C740858BE1C38327030056
:1014A40083280E00239C07042390070603A8C80280
:1014B4001378D8FF23A6080383A807001378F70737
:1014C40093F808F833E8080123A0070103A84702AA
:1014D4003368580023A2070383A80E00014823A2FF
:1014E400780603DA07066307480303A80703038A99
:1014F40006001358F80062081358884163580A011B
:1015040003A807031358F8002380060103D807062D
:101514001378F80F03AA480663060A0003DA87055E
:10152400E37F49FB03A847023378E80123A20703BA
:1015340083870600635CF40003C805003396C90082
:101544001346F6FF337606012380C5003E8663D337
:10155400A7002A8613158601618505071377F70FFF
:101564008506E312F7F3B640264496440649F25939
:10157400625A616182809386019A9C42D84713160D
:1015840017016355060298471316170163500602A4
:101594007D57B8D71737000013070751584F050771
:1015A400173600002320E652116798C798470D8329
:1015B400058B1DCB173700000347276B13671700F4
:1015C400173600002303E66A130700F817360000F5
:1015D400230EE668214798C713874199104358564C
:1015E400719B1367170058D69847058B0DC717379B
:1015F4000000034777671367170017360000A30539
:10160400E666054798C71387419910435856719B5E
:101614001367170058D698470983058B09E798473D
:101624000583058B21CF9847173600001306C66340
:10163400138541990983058B6303071018411843E7
:1016440031830D8B75EBAC4B184E93F505020347B4
:101654001700CDCD79EF13077006D8CF03470600E6
:1016640013671700173600002300E660114798C778
:1016740018415C57F19B93E717005CD79C4298474D
:101684009316370163D606029736000083C6867127
:10169400C18A1737000013076769C5CE0347870758
:1016A4001367070297360000238EE66E056798C716
:1016B40098479316270163D10602173700000347A2
:1016C400E75A6207618763570700054797360000AA
:1016D400238EE658096798C798479316070163D67F
:1016E40006029736000083C6F66B858A173700001A
:1016F4001307C763ADCE03479707136727009736D1
:101704000000A381E66A216798C7828029D78545AE
:101714006315B7001307B00689B789456315B70089
:101724001307F0061DBF8D456315B7001307300777
:101734002DB71307500715B71307600739BF0347C1
:1017440036001367170017360000A300E652094756
:1017540039BF834687070946BD8A6388C6000347A5
:1017640087078D463D8BE313D7F4114725BF834686
:101774009707918AC9DA034797071367870041B728
:10178400397106DE16DC1ADA1ED82AD62ED432D2E5
:1017940036D03ACE3ECC42CA46C872C676C47AC265
:1017A4007EC0D13BF250E2525253C2533255A2553D
:1017B400125682567247E2475248C248324EA24EEF
:1017C400124F824F2161730020309387019A98430E
:1017D4008567938707777CD39387819A9C4383A6F5
:1017E4000709139656006358060083A60709139643
:1017F4006600634406007453FDF2828061C1AA87C7
:101804000145DDCD8D07C207C183F19BC207C183AA
:1018140013074003636BF702138741A3084313873D
:10182400C1A214436396A6021737000013070724C6
:10183400185B014551C74111C20706C60545DD8D38
:101844000297B240014541018280138701A3F9B791
:101854000357650035E303574500636FF704B30688
:10186400F7402146637CD60203280500938687004F
:101874001D8FAA966117173600000356462323923C
:10188400E60023A006012393060014C12312F500E9
:10189400130786FF97360000239BE6202313B50029
:1018A4009735000083D5A520B387F540173700008E
:1018B400231FF71E210582800841ADB701458280B0
:1018C400828009CD938741A303A307009387C1A214
:1018D40083A8070081469A8763E31701828003A8DF
:1018E40007006369F50A6367A80A13878700E3673B
:1018F400E5FE03D66700216705076317E60003C703
:10190400819605072384E196973500009385C519D0
:1019140003D6470003D76500239307003297420795
:101924004183173500002314E51863886702138583
:1019340001A308416303F50203D5660019ED83D7BB
:10194400460023A0060121073E9621062392C600E5
:1019540097370000239DE714B6879843E30017F9EF
:10196400938601A39442E30BD7F683566700BDF632
:1019740083D64700035647001843A106B296239224
:10198400D70098C383D76500A10717370000231039
:10199400F7128280BE86C28781B70327851163024E
:1019A4000712411122C406C68347C5008345E504D6
:1019B4002A8493F7C70F2306F5008346970003563E
:1019C400C70013958601618563F2C508635B05064C
:1019D4000345870093F6F607A304D700054693E66C
:1019E40027006314C50093E617002306D4005C4364
:1019F40089075CC3A30AB400032504112E864C4353
:101A04000905EFF06F868327841103465401D443FC
:101A140003D7C700B296118FD4C32396E700894732
:101A2400A30DF400034764039737000083C7270519
:101A34006378F7048347C40093E707012306F4009F
:101A440081A093E717002306F4006DB79376F60F91
:101A5400635D050203458700854513E6270063148B
:101A6400B50013E617002306C400A30AD400A30498
:101A740007008547A30DF400832784119C43DDF3FD
:101A8400B240224401454101828093E717002306B6
:101A9400F400A30AD400A3040700032504114C4353
:101AA4000905EFE07FFC8327841103465401D443E6
:101AB40003D7C700B296118FD4C32396E7008D478E
:101AC40055BF054582809387C1A39C43411122C41D
:101AD40006C6858B2A84C5EF4165130525F597F065
:101AE40001E0E780C00645C58347A5002315F5003E
:101AF40083270412BDE72320A4122322A4128547BE
:101B04002311F40423200500834764015441231660
:101B1400F5000347D4002304E5000547A304E500CA
:101B24001737000013074714184F13851702158140
:101B34001C437D151375F50F9CC25C43DCC21C4726
:101B44009CC65C47DCC61C4B9CCA5C4BDCCA1C4F65
:101B54009CCE5C4FDCCE19CD938606021307070298
:101B6400C1BF8327441288C3835724042322A412A9
:101B7400850779B79737000083D7C71B85071737C1
:101B840000002319F71AB24022444101828083479E
:101B9400C40023090400054593C747002306F40045
:101BA400DDB78347850193F7E70FC5EF83479501B9
:101BB400CDEB034625018346C50009CA8345650369
:101BC400173700000347B7EB63E7E50013F7060197
:101BD40051CB014709C6C18A0357651C81C6835688
:101BE400A51C369741C31307C712173500000355C8
:101BF40065F0B335A70237460F00411113060624DA
:101C0400814622C426C206C67D543305A702972006
:101C140002E0E780E0FE9737000083C7B7E6B384AD
:101C2400A700973700009387671003A787098327C6
:101C3400070963F387003E84184375FB9387818B00
:101C44009C43829781476364A400B307A440B240D5
:101C54002244B3B7970093C7170092443E854101CD
:101C6400828081473E8582809387019A98437C5382
:101C7400FDFF8280797126D206D622D44AD04ECE78
:101C840052CC56CA5AC85EC68347550303447513DB
:101C9400AA843E941374F40F9307400263F68700FA
:101CA4001304B4FD1374F40F03AA841383AAC41396
:101CB400A38B841222865285D685972002E0E78082
:101CC400A0EE058915E503CBD41201498149337B84
:101CD4006403930B50024A865285D685972002E00E
:101CE400E78080EC058915C5639169031374F90FC6
:101CF400238B8412B250225492540259F249624AFC
:101D0400D24A424BB24B456182808509E20993D99C
:101D140089410509E31179FDE1BF8327850903564C
:101D24000504797193D60701BD8EC206C182358E32
:101D34001357764093575640898B058B5D8F935785
:101D44003640918B5D8F93571640A18B5D8F93170F
:101D54001600C18B5D8F9317360093F707025D8FD2
:101D6400931756009355860093F707041E065D8F5C
:101D74001376F60F518F93D7554013D63540118AF9
:101D8400898BD18F13D67540D18F13D61540218AF4
:101D9400D18F13961500418AD18F1396350013768F
:101DA4000602D18F13965500137606049E05D18F33
:101DB40093F5F50FCD8FA20745465D8F3307C70214
:101DC40022D42A8426D252CC56CA032A8413832AC4
:101DD400C4135AC806D636974207418393577740AF
:101DE400135557400989858BC98F1355374011897D
:101DF400C98F135517402189C98F131517004189BD
:101E0400C98F1315370013750502C98F13155700B1
:101E140093558700137505041E07C98F1377F70FB1
:101E2400D98F13D5354013D755401189098B498F64
:101E340013D57540498F13D515402189498F1395C2
:101E440015004189498F1395350013750502498F93
:101E540013955500137505049E05498F93F5F50FE9
:101E64004D8F2207D98FB387C7024AD04ECE5EC6A4
:101E740062C4B697C207C18313D7774013D55740BE
:101E84000989058B498F13D537401189498F13D59B
:101E940017402189498F139517004189498F13955C
:101EA400370013750502498F1395570093D58700A2
:101EB400137505049E07498F93F7F70FD98F13D530
:101EC400354013D755401189098B498F13D5754077
:101ED400498F13D515402189498F139515004189E0
:101EE400498F1395350013750502498F13955500D5
:101EF400137505049E05498F93F5F50F4D8F220741
:101F0400D98FB387C702130650025285D685B69778
:101F1400BD8E93940601C18033F6C402137BF60F81
:101F2400972002E0E78040C805890DED8347D4126D
:101F340001498149B3849702130C5002C1804A8637
:101F44005285D685972002E0E78000C60589937BF9
:101F5400F90F11C563863403850993F9F90F05094F
:101F6400E31F89FD230B6413B25022549254025987
:101F7400F249624AD24A424BB24B224C45618280BA
:101F84005E8BCDB7797122D406D683C735002E84F3
:101F940023160100A307F10083C74500100802C0FF
:101FA4002307F10083C755008A8502C2A306F10006
:101FB40002C402C802CA02CC02CEEFE09FF5034776
:101FC400F1018347040001456310F7020347E1016F
:101FD4008347140001456319F7000345D101834782
:101FE40024001D8D13351500B250225445618280A2
:101FF400011197370000938767D322CC03A4870C81
:1020040026CA4AC84EC606CEAA84130925008549A5
:1020140015C083C7140003473400858B6304F7009D
:10202400405CFDB71946930544004A85EFE0DFACF8
:10203400E31835FF2285F2406244D2444249B24952
:1020440005618280411197370000938727CE22C40F
:1020540003A4870C26C24AC006C69304250005497A
:1020640001E82285B240224492440249410182801F
:10207400A6851305A4023937E30525FF405CCDB7D7
:10208400411197370000938767CA22C403A4870CC1
:1020940026C24AC006C693042500054901E82285E4
:1020A400B24022449244024941018280A68513052C
:0C20B400A401C93DE30525FF405CCDB749
:1020C00097110020938181B217610020130181F3E1
:1020D0001305400097E5FF1F9385C5F21706002002
:1020E000130606FE63FAC5008322050023A05500EF
:1020F00011059105E3EAC5FE17450200130585CDDC
:10210000970500209385C5FB1386018663FAC500F9
:102110008322050023A0550011059105E3EAC5FEC1
:102120001385018697350020938505D36377B50025
:10213000232005001105E36DB5FEFD42739002BC3E
:102140008D4273904280930280087390023097E230
:10215000FF1F938222EB93E23200739052303717C5
:102160000040930770052300F704930780FA2300CB
:10217000F7040F1000003C47B70600FAE116F58F90
:10218000B70600069506D58F3CC7972200009382BC
:10219000A2EE73901234730020303D432A8763739C
:1021A000C3029377F700BDEFADE5937606FF3D8A56
:1021B000BA960CC34CC30CC74CC74107E36BD7FEA0
:1021C00011E28280B306C3408A0697020000969609
:1021D0006780A6002307B700A306B7002306B70051
:1021E000A305B7002305B700A304B7002304B70075
:1021F000A303B7002303B700A302B7002302B7006D
:10220000A301B7002301B700A300B7002300B70064
:10221000828093F5F50F93968500D58D93960501F1
:10222000D58D61B793962700970200009696868217
:10223000E78086FA9680C1171D8F3E96E374C3F837
:10224000A5B7B717004003C777051377E70FA38B30
:10225000E704130700F8A38DE7043D47238CE70448
:1022600013075003A38CE7048280B717004083C78D
:10227000E7020D8993F7C70FC98F73270080218B61
:102280009386018609CB7327008023A0E1869842BC
:102290005D9B731007800F10000037170040130676
:1022A00070052300C704130680FA2300C7040F102B
:1022B00000002307F70223000704732700809C42D5
:1022C000A18BD98F7390078023A001860F10000087
:1022D000828041112A83014E930E407E130F001914
:1022E000930F400663E66E1493080019130340062B
:1022F000B3781503854E0D4FA14F337365020D89D9
:102300001335150063E0BE161308F6FF7946729880
:102310004208135808013307C70213D61700BE0737
:1023200032976146B3F6C60213068070B386C602C2
:102330003697A166F58F42075D8FB716004083C7B9
:10234000F60293F70708A307F1000346F10083C7DD
:10235000F60293F70708E394C7FE8347F100B71628
:10236000004093F7F70F63890714F3270080A18BD0
:1023700093860186639807140F100000B71700407A
:10238000130670052380C704130680FA2380C70450
:102390000F10000023AA070303C6170313660608DD
:1023A000A388C70223800704732600809C42A18B68
:1023B000D18F7390078023A001860F100000116653
:1023C000B71500407D16DC59C85DA98FF18FE5FF78
:1023D000F3270080A18B89CBF327008023A0F1860F
:1023E0009C42DD9B739007800F100000B7170040E0
:1023F000130670052380C704130680FA2380C704E0
:102400000F100000D8DB03C7170313670704A38866
:10241000E70223800704732700809C42A18BD98F99
:102420007390078023A001860F1000004101828075
:102430007D133368E3039308E016630E08003368E6
:10244000F3039308D016630808009378330093B819
:1024500018009388D81633081E01131E0801135E56
:102460000E0149B56393E5030548638608000148FA
:10247000630303002A8871087298FD15131E080172
:10248000C205135E0E01C181B5BD13F8150063F4DA
:10249000BF007908D5B713381800E5BF83C7F60227
:1024A00093F70708A307F1000346F10083C7F6027C
:1024B00093F70708E394C7FE8347F10093F7F70FFC
:1024C000F1DF65B5F327008023A0F1869C42DD9BF8
:1024D0007390078055B55971E2C486D6A2D4A6D2AE
:1024E000CAD0CECED2CCD6CADAC8DEC6E6C2EAC0E0
:1024F0006EDE2A8C02D6EF009020F3270080A18B9D
:10250000138D018691CBF327008023A0F1868327CA
:102510000D00DD9B739007800F100000B71700407F
:10252000130770052380E704130780FA2380E7046C
:102530000F10000003C7F7021377770FA387E70296
:1025400003C7F70213678700A387E7022380070406
:102550007327008083270D00A18BD98F739007808C
:1025600023A001860F100000F3270080A18B91CBE0
:10257000F327008023A0F18683270D00DD9B739055
:1025800007800F100000B717004013077005238065
:10259000E704130780FA2380E7040F10000003C745
:1025A000E7021377C70F2387E70203C7E702136722
:1025B00017002387E70223800704732700808327FF
:1025C0000D00A18BD98F7390078023A001860F1077
:1025D0000000130780C13347E5029169938709E83A
:1025E000130650023D69B7440F0093840424856BA1
:1025F000130BA004014A814A13047005FD19B34767
:10260000F5023307C7023EC2930709A61309803EAD
:102610003347F7023AC43347250305493319890183
:10262000135939403345950293840BFAB3948401CE
:10263000811B3306C702B346F6023309E90236C6E8
:10264000330B670313076055B3049502130500109D
:102650003309E902B346FB02130B80FAB3C4A402A8
:1026600036C8B347F902939634003719004036CC88
:10267000930409043ECA73260080218A11CA732676
:10268000008023A0C18603260D005D9A731006808A
:102690000F100000930770052380F400238064016D
:1026A0000F100000034639051376860FA309C904ED
:1026B0000346390513661600A309C90423800400E4
:1026C0007325008003260D00218A498E7310068031
:1026D00023A001860F100000916CE17D732600801D
:1026E000218A11CA7326008023A0C18603260D000B
:1026F0005D9A731006800F10000093077005238009
:10270000F400238064010F100000034639051366AE
:102710000602A309C9040356090533669601231866
:10272000C904035609053366B601420641822318DF
:10273000C904238004007325008003260D00218A2C
:10274000498E7310068023A001860F1000000346F7
:102750003905137606026306061603463905218AF3
:102760006DDE6810EF00C07D73260080218A11CADB
:102770007326008023A0C18603260D005D9A731086
:1027800006800F10000023808400238064010F1056
:102790000000034639051376F60DA309C904034664
:1027A000390513660602A309C904035609053366F1
:1027B00096012318C904035609053366B60142067B
:1027C00041822318C9042380040073250080032656
:1027D0000D00218A498E7310068023A001860F10F8
:1027E0000000034639051376060263080610034607
:1027F0003905218A6DFE97E0FF1FE780C0892A8690
:1028000032CE97E0FF1FE78000897246E30AC5FEDB
:10281000035609053255336696012318C9048927E2
:1028200003463905218A6DDE03550905034629054E
:10283000924733F5A9003386C90232951D8DA24710
:1028400063D5A700B2476346F50E09466365560F88
:10285000C247850A1316150093FAFA0F3346F6029B
:102860006354A03A050609453346A6027325008045
:10287000218911C97325008023A0A18603250D009D
:102880005D99731005800F10000023808400238061
:1028900064010F1000000355C9022A9642064182C6
:1028A0002316C902238004007325008003260D002F
:1028B000218A498E7310068023A001860F10000024
:1028C00031BD73260080218A11CA7326008023A09F
:1028D000C18603260D005D9A731006800F1000005C
:1028E00023808400238064010F1000000346390513
:1028F00013660602A309C9042DBD73260080218A30
:1029000011CA7326008023A0C18603260D005D9A9C
:10291000731006800F100000238084002380640160
:102920000F1000000346390513660602A309C90407
:1029300059BDE38F0AF073260080218A11CA7326DD
:10294000008023A0C18603260D005D9A73100680C7
:102950000F10000023808400238064010F1000000A
:10296000034639051375FC0F1376860FA309C904B6
:1029700003463905498EA309C9042380040073283E
:10298000008003260D00218A33660601731006803D
:1029900023A001860F100000034639051D8A631726
:1029A000862773260080218A11CA7326008023A0FF
:1029B000C18603260D005D9A731006800F1000007B
:1029C00023808400238064010F1000000346390532
:1029D00011651376F60DA309C9040346390513667C
:1029E0000602A309C90403560905498E2318C90420
:1029F000035609052165498E2318C9042380040064
:102A00007325008003260D00218A498E73100680ED
:102A100023A001860F100000034639051376060235
:102A2000630E062003463905218A6DDE6810092BE6
:102A300073260080218A11CA7326008023A0C186D4
:102A400003260D005D9A731006800F10000023808E
:102A50008400238064010F100000034639051165CE
:102A60001376F60DA309C904034639051366060259
:102A7000A309C90403560905498E2318C90403563E
:102A800009052165498E2318C90423800400732594
:102A9000008003260D00218A498E7310068023A032
:102AA00001860F1000000346390513760602630302
:102AB000061C03463905218A6DFE97D0FF1FE7806B
:102AC000805DAA8C97D0FF1FE780E05CE30C95FF48
:102AD000035609051165498E32552318C904492149
:102AE00003463905218A6DDE73260080218A13850D
:102AF000018609CA7326008023A0C18610415D9A11
:102B0000731006800F10000023808400238064016E
:102B10000F100000034639051376F60DA309C9040A
:102B200023800400732800801041218A3366060147
:102B30007310068023A001860F10000003580905BA
:102B400003462905E24733F809013386C902329862
:102B50003308F8401306800C3306C802D2473346C8
:102B6000F60263550015050609483346060363510E
:102B7000C0140358C9029308F00F13585800329834
:102B800063D6081F094663734619F3270080A18B9B
:102B900089CBF327008023A0F1861C41DD9B739035
:102BA00007800F10000037170040930770052300BF
:102BB000F704930780FA2300F7040F1000008356F0
:102BC000C70289678117D58FC207C1832316F70211
:102BD00023000704732700801C41A18BD98F7390B9
:102BE000078023A001860F100000B650265496548B
:102BF0000659F649664AD64A464BB64B264C964C81
:102C0000064DF25D656182807D16B1B97326008044
:102C1000218A11CA7326008023A0C18603260D00D5
:102C20005D9A731006800F100000238084002380BB
:102C300064010F100000034639052DBB7326008088
:102C4000218A11CA7326008023A0C18603260D00A5
:102C50005D9A731006800F1000002380840023808B
:102C600064010F1000000346390513660602A3092C
:102C7000C90469B373260080218A11CA73260080B3
:102C800023A0C18603260D005D9A731006800F10E5
:102C9000000023808400238064010F10000003469D
:102CA000390513660602A309C904C5B37D166DBDB7
:102CB00055CE0358C902B308C04013585800635793
:102CC000180B094663744605F3270080A18B89CB56
:102CD000F327008023A0F1861C41DD9B73900780C1
:102CE0000F100000B7170040130770052380E7049A
:102CF000130780FA2380E7040F10000003D7C702F0
:102D00007D8B2396E70223800704E9B573260080B4
:102D1000218A09CA7326008023A0C18610415D9ACA
:102D2000731006800F10000023808400238064014C
:102D30000F1000000356C9021376F60F33667601B2
:102D4000420641822316C9022380040073280080B2
:102D50001041218A336606017310068023A0018684
:102D60000F100000050A137AFA0F31B2F327008022
:102D7000A18B89CBF327008023A0F1861C41DD9B2A
:102D8000739007800F100000B717004013077005FD
:102D90002380E704130780FA2380E7040F10000064
:102DA00003D7C70216063A96420641822396C70207
:102DB00099BF914763EEB702172702001307075325
:102DC0008A05BA959C41BA978287B717004003A736
:102DD000470B1345F5FF698F23AAE70A03A7070BE3
:102DE000698F23A8E70A03A7070A798D23A0A70AFA
:102DF0008280B717004083A6470B1347F5FFF98E73
:102E000023AAD70A83A6070B558D23A8A70A83A652
:102E1000070A758F23A0E70A8280B717004003A72F
:102E2000470B498F23AAE70A03A7070B1345F5FFB2
:102E300045BFB717004083A6470B1347F5FF758FB3
:102E400023AAE70A03A7070A598D4DB7B717004011
:102E500003A7470B498FEDB7914763EEB7021727DA
:102E600002001307E7498A05BA959C41BA97828701
:102E7000B717004003A7470D1345F5FF698F23AA35
:102E8000E70C03A7070D698F23A8E70C03A7070C1E
:102E9000798D23A0A70C8280B717004083A6470D29
:102EA0001347F5FFF98E23AAD70C83A6070D558D7E
:102EB00023A8A70C83A6070C758F23A0E70C82809C
:102EC000B717004003A7470D498F23AAE70C03A7B4
:102ED000070D1345F5FF45BFB717004083A6470D03
:102EE0001347F5FF758F23AAE70C03A7070C598D2D
:102EF0004DB7B717004003A7470D498FEDB7B71778
:102F0000004003D58700420541819377050491EB8A
:102F10009377F5013755E801130505803345F50230
:102F200082809377050C130700046397E70093777B
:102F3000F50137459C1CCDB72165130505D082806E
:102F400037E700E01C435443A183E206D58F1CC140
:102F5000FD572320F7182322F7180F100000828056
:102F600013178500B7E700E023A0E710618123A2D3
:102F7000A7108280B7F700E08847CC47828081475E
:102F800037370040A14663C4C700328582800345BD
:102F9000B740E38EA6FE3385F5000345050085079F
:102FA0002304A740CDB797F7FF1F938727449C437F
:102FB00017270020130747EA3E95636EE500175771
:102FC0000020130727E46368A70017F7FF1F232FCC
:102FD000A7403E858280FD57EDBF411122C406C641
:102FE0002A84313F2947B307E502B2408D83B3D726
:102FF000870222449507B3D7E70237370040C2075C
:10300000C1832316F7404101828071654111130588
:10301000052006C6D937B7370040130770F823815B
:10302000E7400D47A381E74013070004A380E74072
:1030300005472387E740B24041018280B73700400F
:1030400003C7174019C9D98DA380B74003C70740EC
:10305000136787002380E740828093C5F5FFF98DD1
:10306000A380B7408280CC41411106C6328503C699
:10307000150083C5050022064D8E42068D654186EA
:10308000138875A2630C060F6348C804138845A211
:103090006306060B634AC800938535A26309B6062A
:1030A00023900600294679A0138855A26308060BD1
:1030B000938565A2E316B6FEC1451D4663ECE506A1
:1030C0004546198E63F3C7003E862390C6009725B8
:1030D00002009385252589A8138895A26300060F11
:1030E000634E060B1388A5A2630A060F938505A5F8
:1030F000E318B6FA99451D4663EEE502198E63F3AF
:10310000C7003E862390C6009385C18031A89D45A7
:103110001D4663E1E5022146198E63F3C7003E8632
:103120002390C60093854186BA9597E0FF1FE780FC
:10313000E0930146B240328541018280AD451D4693
:10314000E3EAE5FE3146198E63F3C7003E8623901D
:10315000C600972502009385A520F9B7B1451D4605
:10316000E3EAE5FC3546198E63F3C7003E862390FB
:10317000C600972502009385A51F7DB7C1451D4652
:10318000E3EAE5FA4546198E63F3C7003E862390CD
:10319000C600972502009385251A79B7C1451D46BB
:1031A000E3EAE5F84546198E63F3C7003E862390AF
:1031B000C600972502009385A51CBDB7C1451D46D5
:1031C000E3EAE5F64546198E63F3C7003E86239091
:1031D000C6009725020093856517B9B7B5451D460A
:1031E000E3EAE5F43946198E63F3C7003E8623907F
:1031F000C600972502009385E5113DB797F6FF1F9E
:10320000938606FF4146CD4517F5FF1F130545EB95
:103210006F90D00511456FF00FAC411193962500CA
:10322000AA852D4506C697D0FF1FE780804DB24086
:10323000014541018280411126C29394250022C498
:103240004AC02A843289A686AA850146254506C633
:1032500097D0FF1FE780E04AA6864A86A2852945C7
:1032600097D0FF1FE780E049B240224492440249D0
:10327000014541018280011122CC06CE3714004065
:1032800026CA4AC84EC652C483447405034AB405CC
:103290008349840503499405EFE0BFFA8347A405F9
:1032A00093F4F40F137AFA0F93E71700230DF40445
:1032B00093F9F90F1379F90FB717004003C7A70562
:1032C000058B6DFF03D5C705A38D4705238C3705F7
:1032D000A38C2705A38B9704F2406244D244424951
:1032E000B249224A0561828041119397050122C4A7
:1032F00006C6C1872E8463DD0700EF00D06619C1C2
:10330000EF00505F2165218DB2402244410182804F
:1033100093F7150013C51500E5FB9397250163D0BE
:103320000702EF20B121FD3537F60200130606E053
:10333000896503C5C186EF10C02A0965E9B793976F
:1033400015010145E3D207FC172502001305050905
:10335000EF00526113060064916503C5C186EF104A
:10336000402811654DB71D71494697250200938588
:103370006502172502001305A53E86CE97D0FF1FD4
:10338000E780C07701E9172502001305E501EF008A
:10339000725D01A0B7F600E0795798CAFD57DCCA04
:1033A0000567B7E700E023A0E7101306F00290C21C
:1033B00023A0E7180F1000001306C003814548083A
:1033C00097D0FF1FE780006E97070020938707EADA
:1033D0003ECA896793870780231CF100B547230401
:1033E000F102A167938707E03ECEB70701059387F7
:1033F00007103ED09307F00F2312F10285472303F5
:10340000F10297070000938787E1BEC49707000089
:103410009387A7E2BEC68567938717D02315F1026D
:1034200097070000938747B53EDAB7F5070097077F
:103430000000938787E43EDE81469707000093876C
:10344000A7DD7000E1051945BEC097D0FF1FE780DA
:10345000402B58088147994670003E960346060067
:1034600085070507A30CC700E398D7FED24791C78D
:103470000357810185676373F70001A04808EF10C7
:10348000805EAA8501C917250200130525F3EF0008
:10349000D23B01A0F6402561828041111705000052
:1034A0001305C5E406C622C4EF1060581384C18614
:1034B0002300A4001928034504002244B240130647
:1034C0000032896541016F10C011411106C6F32712
:1034D0000080A18B1387018689CBF327008023A06E
:1034E000F1861C43DD9B739007800F100000B71717
:1034F0000040930670052380D704930680FA23804A
:10350000D7040F10000083C6F70293F6A60FA38717
:10351000D70223800704F32600801C43A18BD58F9C
:103520007390078023A001860F100000F32700800E
:10353000A18B89CBF327008023A0F1861C43DD9B60
:10354000739007800F100000B717004093067005B6
:103550002380D704930680FA2380D7040F1000003D
:1035600083C6F70293E62600A387D70223800704C9
:10357000F32600801C43A18BD58F7390078023A076
:1035800001860F1000000545EFE03FCE61311305C5
:10359000407E81470147814605468545EFE07FD360
:1035A000B240014541016F107000797122D406D6F6
:1035B00026D24AD04ECE03C8850021441378080293
:1035C000631E080403C305000948630403010144A2
:1035D000B1A0DC41AA84328903C8170083C7070061
:1035E00022083368F8008D67938727906310F804EA
:1035F0008547EF70700B2A8415E1938741879843C4
:1036000079D783471900834609004C00A207D58F5C
:10361000B337F00085073EC2268502972285B25057
:10362000225492540259F2494561828085679387FA
:10363000D75FC297F59BC207C183D1FB93874187B0
:103640009843BE8949D7BD67938757A0B688154769
:103650006303F8000D472382E1A69307A00F468479
:1036600063F417011304A00F420441802286CA8527
:10367000138551A697D0FF1FE780403F8D473EC27C
:10368000938741A63EC483A7090005042316810041
:103690004C002685829725BF03C805008947294528
:1036A0006310F808D841011122CC26CA06CE834700
:1036B0001700034707003684A207D98F0D67130749
:1036C0002790B2846391E702CC4523900601094616
:1036D000268597D0FF1FE78060390145F24062449C
:1036E000D244056182803D67130737A0E398E7FE67
:1036F0001385413615221307A00FAA876374A7000C
:103700009307A00F2317F10019C51306E100A68542
:10371000138541364D228357E1002310F40075BF15
:10372000828041677917630CE502411122C406C605
:1037300085472A84639AF50022852244B240938506
:1037400041A541016F90603D89476396F50085452D
:10375000EFB0607175D1B240224441018280828015
:10376000411126C2AA844165938541A57D1506C6EF
:1037700022C4EF90803A170500001305C5FAEFB098
:10378000C06597F6FF1F938666AD4146994517F5CC
:10379000FF1F1305A5A6EF90602D2A8419C51725D4
:1037A00002001305E5C3EF00F21B2285B24022445C
:1037B00023AA91869244410182804111938541A5BB
:1037C00006C6EF702069B2407D1513351500410122
:1037D0008280411122C42E84938541A526C206C64B
:1037E000AA84EF702067058915C197F7FF1F93879B
:1037F000E7A083D7A702A285B2402310F400224499
:1038000026859244014641016F80A041B240224486
:1038100092444945410182808357250003550500A4
:103820003385A740420541818280AA8705C21307DC
:10383000F6FFB376C700054599EA23A00700CCC37D
:103840002394C7002395E7000145828005458280C7
:103850002320050082802A8729CD835605008357BF
:10386000A500B697835625008507958FC207C183AB
:10387000BE866373F600B286C206C1820D459DCB3B
:1038800081476394D7000145828003562700035582
:10389000A70003C805008507718D5043C207C18387
:1038A0002A96230006010356270005062311C700A8
:1038B000C9BF11458280AA871145B1CF29CE83D6D1
:1038C000070003D72700158F835606004207418360
:1038D0006373D700BA86C206C18209450DCF01477E
:1038E0006366D7002310D6000145828003D5070008
:1038F00003D8A70033780501C84342950348050063
:103900003385E50005072300050103D507000505FC
:103910002390A700F1B7828029C50357050083577C
:103920002500998F3E87C207C1836373F6003287F3
:1039300042074183814763E4E70001458280835663
:1039400005000356A5008507758E5441B29683C6BF
:1039500006002380D5008356050085062310D50078
:10396000D9BF11458280938781829C43411106C64D
:1039700022C4B1C705476390E704252A9387C1870E
:103980009C431D8D8567938777BB63F6A70215223D
:1039900023AEA186371400408327840C130520032F
:1039A00093E717002324F40CED288327C40C93E736
:1039B00017002326F40CB240224441018280D5280E
:1039C0009387C1879C431D8D9307301FE3F5A7FEA6
:1039D000CD2023AEA186371400408327840C130525
:1039E000200393E727002324F40C65288327C40CC5
:1039F00093E727007DBF411122C426C24AC006C6F4
:103A00002A890144B714004063182401B2402244BB
:103A1000924402494101828083A7840C130520034C
:103A2000050493E7270023A4F40CA52883A7C40C5E
:103A3000130520031374F40F93E7270023A6F40C57
:103A40008D20D9B7411122C4371400408327C40CFC
:103A500006C68D4593E717002326F40C0545EFF0C5
:103A6000AFBF8327C40CB2408D4593E727002326C0
:103A7000F40C2244094541016FF00FBE37E700E026
:103A800085663D652320D710B7F700E01305F5A53F
:103A900088CB8145CCCB2320D7101307F00298C3E5
:103AA00082809387018894439843158FE36EA7FE25
:103AB00082809387018888438280138701881C4312
:103AC00085071CC3B7F700E023A20700730020306E
:103AD0000111680006CEEFF0AFC683C7518899C3C5
:103AE000A38201883245EFF0AFC7B735004083C7E6
:103AF000B5401D47636DF70083C7B54021469385E8
:103B000085401D8E42064182138501573135F240B2
:103B100005618280411113060020938501371385CA
:103B2000015706C622C4113305661306068097F5B1
:103B3000FF1F9385E5C113854136C5393714004011
:103B40008327840A8D451305002093E7072023244B
:103B5000F40AEFF00FA68327840A854513050010A9
:103B600093E707102324F40AEFF0AFA4EFF0EFC9B6
:103B700095450545EFF08FCCB2402244B7E700E011
:103B80003707000823A0E710410182809C410947C4
:103B9000638FE7000D47638EE7020547639AE702EC
:103BA000AA85172502001305A5856F00024AAA857C
:103BB0001725020013050587CDBFD8413E9703475F
:103BC000070085072384E64003D78500E3C7E7FEA7
:103BD00082808147B7360040C5BF83D7C1896399CA
:103BE000A700239FB1882390C18A2391D18A828024
:103BF00017250200130545876F00C2562A86B305B4
:103C0000B04017250200130525886F0002440357B2
:103C10004500011106CE83D7C1896315F702C1673C
:103C2000F91723AEF18823A0018A85471306F10016
:103C3000854513055030A307F100EF70B12BF2401A
:103C4000056182801725020013058581EF008251EE
:103C5000FDB73D899307F5FF15476361F710171707
:103C600002001307677E8A07BA979C43411106C674
:103C7000BA972E8582871725020013056582B24008
:103C800041016F00224E03C725009947631DF702CB
:103C9000B2404101ADBF03C7250095476315F70248
:103CA000C16783D6C189F91703D7A5006380F602DF
:103CB0003A85EF70914F171502001305657FEF00ED
:103CC000624A23A40182B24041018280239EE1889E
:103CD00083D7E500514603C59181239FF18883D79F
:103CE00005012390F18A83D72501930500022391D2
:103CF000F18AEF00100F096613060690A14503C56F
:103D00009181EF00100E75BF171502001305857B1A
:103D1000BDB783C5250091476397F50017150200CD
:103D20001305C57BA9BF99476397F500CD35854736
:103D300023A4F18249BF9547639AF5008347150094
:103D4000F1FF171502001305257B15BFB2401715AB
:103D500002001305E57A41016F00222F82800111D4
:103D60009397050122CC06CE26CAC1872E8463DE36
:103D7000070003C59181C52E11C1AD2E2165218D8E
:103D8000F2406244D2440561828093F705029DC7E8
:103D900003D5C1891307F5FF4207C1674183F517B2
:103DA00063EBE7009307700F03C691816C00231645
:103DB000F100EF50F06613450402D9B793F71500F0
:103DC00091CF17E6FF1F1306264A9385416703C567
:103DD0009181EF702168134514005DB793F785005A
:103DE00099CF83C791811307400681465146A1456B
:103DF00003D5C189EF70615F1345840051B793F714
:103E000005010145B5DF938741829C4305476389DE
:103E1000E70081C70D476373F708134504018DB7A9
:103E200003D5C189EFF07F9919E9C16703D7C1892B
:103E3000F917E314F7FE13854136193CF9BF1385D2
:103E40004136EFF07F9DAA8469D903D5C189EF106F
:103E5000300E9307C5FFC207C18313073006636C9A
:103E6000F70875152392A18A83D7418A63F4F40079
:103E70002392918A13854136EFF01F9A83D7418AA6
:103E80006360F5081386418A9385C15713854136CF
:103E90001D341375F50F23A4018841F103D6418A1F
:103EA00001478146ED4503D5C189239BC188EF5069
:103EB000B06723ACA18825CD03D661899385C1570E
:103EC00097D0FF1FE78080BA01469385418903D5CB
:103ED000C189EFF01F9031C58D47ED4513854189AC
:103EE00023A2F182EF60E0230946C14503C5918119
:103EF000EF00206F1DB79307A00F2392F18AADB793
:103F0000938481889840A947E3EEE7F61146C145BE
:103F100003C59181EF00E06C9C40850723A4F188E4
:103F2000EDBD854723A2F1822392018A75BF89479F
:103F300023A2F18255BF011117050000130565E2A8
:103F400006CE22CC26CAEF00902E994705449384D2
:103F500091812315F1009307803E2316F100A304FD
:103F600081002380A400EF60504C1306910085452A
:103F700013055030EF70017817E6FF1F1306063166
:103F8000D14513057030EF70E1761386C1819D45F0
:103F900013056030EF7001761306A1008945130503
:103FA0001031EF7021757000894513052031EF70D5
:103FB00061749305000A0D45EF20B05F9305000A78
:103FC0001145EF20105FF967938707247000914532
:103FD000130570403EC6A303810023048100A3049F
:103FE000810023050100EF604151130671008545F2
:103FF00013050040EF606150300085451305104007
:10400000EF60A14F1306A100854513052040EF6026
:10401000C14E13069100854513055040EF60E14DF8
:104020007D55EF5090137D55EF80102CEFF00F9DD4
:10403000170500001305C5B5EFF08FF217E6FF1F57
:1040400013064623D5450145EF50C07FC16713874E
:10405000C189F9171CC3232207001385C188EF50BB
:10406000212203C5040085453921F2406244D2442F
:104070000561828041111305800406C697C0FF1FA9
:10408000E780E002371700408327870A8D45130534
:10409000002093E707202324F70AEFE09FD1EFE009
:1040A000DFF6171502001305A56BEF00A20BEFF06A
:1040B0008FABEFF08FBEEF709111B53DEFF09F9891
:1040C000EFF0DF9BEFF01FA52945EFF0DF9297C0DF
:1040D000FF1FE780C05523AC05FE1C4191E701009E
:1040E00001000CC18280BA8703A787FF6DFF23AC54
:1040F000B7FE82801DC18346E5FF1307F00F91478D
:10410000639EE600411106C697D0FF1FE780A07BA3
:10411000B24081473E854101828095473E8582803D
:1041200001E9014582800145B2402244410182807B
:1041300095654111938505D022C4C98D2A84210536
:10414000C2054205C181418106C697D0FF1FE780A5
:10415000206B71D9FD57232005002312850023030E
:10416000F5002105D1B71387818A1C43411122C470
:1041700026C24AC006C601440149BA8489E7A1653E
:10418000952D0DC401A803C7E7FF6318A7021DC83A
:10419000A165D5249840832784FF6317E40223A4F4
:1041A000F18AFD57232C04FE230FF4FE2285B24032
:1041B0002244924402494101828011E03E8983A752
:1041C00087FF6DBF3E84E5BF232CF9FED9BFA1CD8B
:1041D000411122C406C62A849717002083C7D78CB2
:1041E0002E856375F400894763E8870021370D4504
:1041F000B24022444101828083A785FF99E703C72B
:10420000E5FF9307F00F6305F700ED351545CDB7D2
:10421000238F85FE1385818A7D3D22852244B2400D
:10422000A165410189AC1545828023A4018A828061
:104230009387018C9C4399E33E85828003D72700B6
:104240006316B70003C70700E308A7FEDC47E5B71E
:10425000BDCD797122D406D626D24AD04ECE0144A5
:104260004147B3D78540858BB1CF120531472295A1
:104270003305E5029387018B03A907008544B394B6
:104280008400C204C180BE892A990327090011C78E
:10429000032549002EC60297B24531473304E40294
:1042A00083A709003E941C4489E7232009002322A8
:1042B0000900B2502254A58D02599254F2492E851C
:1042C000456182800504E31EE4F88144DDB72E8554
:1042D000828041111397050122C406C626C24AC036
:1042E00041872E84635E0700BD3D11C12135A16762
:1042F0003D8C2285B2402244924402494101828091
:10430000EDD9AA8701474146B356E440858A9DCA44
:104310009207BA97B146B387D7029386018B03A958
:1043200006008544B394E400C204C1803E9983270B
:104330000900032549008297232009002322090050
:10434000258C45BF0507E311C7FC8144D5BF9707FE
:1043500000209387A7719C53411122C406C6138481
:10436000C18299C782971C403E9523A6A18229A0AD
:104370009387818B9C43FDF70840B74703009387E1
:10438000D73F3305F502B7A72600938737ECB24035
:1043900022443E9523A6A1824101828079C9938758
:1043A000818B9C43797122D426D24AD04ECE52CCF6
:1043B00056CA5AC806D65EC63A8AB689328BAE8AC3
:1043C0002A8982979387018B9843BE840144B14622
:1043D000C147B30BD40233067701104251E6C165E1
:1043E000938505F0414597D0FF1FE78060411DE5AB
:1043F00097070020938787679C5B2D4589C71145E8
:10440000814582972D45B250225492540259F24967
:10441000624AD24A424BB24B456182809387018CFB
:1044200098431DEF23A0A18C230005009C40054765
:104430003317870023260500232465012311E50097
:1044400023224501DE9723A0270123A2570123A49D
:1044500047010145E38909FA238089006DB73E874A
:104460005C47F5FF48C7C9B70504E314F4F62145D6
:1044700059BF094582809707002083C7F762637F91
:10448000F5001387C18A9317150008433E9583579B
:104490000500DD8D2310B500014582800D45828029
:1044A0009707002083C757606371F5021387C18A9D
:1044B00093171500084393C5F5FF3E9583570500F4
:1044C000FD8D2310B500014582800D4582801307C4
:1044D00005FF1377F70FFD4763E5E70AB146B3061B
:1044E000D5029387018B984389473697184359CB58
:1044F000011122CC4EC60544935945003D89331520
:10450000A40013140501418026CA4E85AE84A285FD
:104510004AC806CE313B2A89814721CDA2854E85E6
:1045200041379387818B9C4382979707002083D7DD
:10453000675C338797022A84814613060064B3B709
:10454000970213050732B335E500BE95EFF0016B16
:10455000B307850097060020938646593E87D442CC
:1045600063E4A70063E4D7003387D7402324E9003E
:104570008147F2406244D2444249B2493E850561D6
:10458000828089473E858280011126CA06CE22CCD0
:104590004AC84EC6BD47894463EDA7023147330779
:1045A000E5029387018B9C438944BA979C4395C34A
:1045B00005443314A400420441802E890145A2859C
:1045C0008539AA89814411C5A2850145D13D23A41D
:1045D0002901F240624426854249D244B24905612C
:1045E00082809707002083C7374C6364F50001453C
:1045F000828001119387818B56C283AA070006CE61
:1046000022CC26CA4AC84EC652C4638D0A0A170A6B
:104610000020130AAA4D83244A00B74736FE938729
:1046200007C8AE899705002083D5C54CBE94B387D3
:10463000C5022A8432898146B3B5C5021385073283
:10464000B337F50013060064BE95EFF0215B63EB12
:10465000A406829A9705002083D5C549B387250310
:10466000AA84130600648146B3B525031385073277
:10467000B337F500BE95EFF06158B3079500BE84DF
:1046800003274A0063E4A70063E4E700B384E7403C
:10469000CE852285713E01C504C505452DA09365D3
:1046A00004F0C205C181414597D0FF1FE780401546
:1046B00005E5970700209387673B9C5B81C7A28530
:1046C000114582970145F2406244D2444249B249C1
:1046D000224A924A056182809387018C9C438DE334
:1046E00023A0A18C85472326050004C5231135018D
:1046F00023008500A300F5002322050079BFBA87B7
:10470000D84775FFC8C7F9BF49C9797122D426D2E5
:104710004AD04ECE52CC56CA5EC662C466C206D6D7
:104720005AC83689328AAE89AA844144314C938A68
:10473000018B854C930B0003330B840303A70A0002
:104740005A971C43B1E79375F400B395BC00135519
:104750004440C2055286C1811375F50F59350DC904
:1047600083A70A000145DA9784C323A237016304B3
:10477000090023008900B250225492540259F24990
:10478000624AD24A424BB24B224C924C45618280E3
:104790000504E31374FB2145F9BF094582804111EB
:1047A00022C426C24AC006C62A842E89B284153D78
:1047B000CA852285EFF0DFA705CD9705002083D5B8
:1047C0006533B38795022A84130600648146B3B526
:1047D000950213850732B337F500BE95EFF001421D
:1047E00048C00145B24022449244024941018280BE
:1047F0002145CDBF411122C426C24AC006C62A891E
:104800002E84EFF0FFA2AA8419C123110500A2850E
:104810004A8579319707002083C7072963972701C5
:1048200083D7418B5D8C239A818A014591E019459C
:10483000B240224492440249410182809307F0022F
:1048400063E6A7044111B14722C43304F50226C22E
:104850009384018B9C4006C6A297984389470DC359
:104860009377F5008545B395F500C205C1811181A7
:1048700051379C40A29723A0070023A2070081473D
:10488000B240224492443E854101828089473E8560
:104890008280411106C622C4EFF09F9911E50145BF
:1048A000B2402244410182809387818B9C43004522
:1048B000829797070020938767236368A402D843F1
:1048C000B74636FE938606C83305A4403697E3788C
:1048D000E5FC13070064B335E50203D68700814683
:1048E0003305E502EFF0813165BFD8433A94C1BF8B
:1048F000411106C623AEA18A0295B2409707002057
:1049000023A0A71C014541018280994763E9B700B4
:104910008A05970700209387A71BBE9588C18280D0
:10492000411171468145170500201305651A06C619
:1049300023A0018C23AE018A23AC018A97C0FF1FFC
:10494000E7804016130680028145170500201305F5
:10495000A51597C0FF1FE780E014EF70811097073F
:10496000002083C7171213D527008D8B3E958D47E6
:104970003305F502854539051375F50F97070020B6
:104980002385A71299473305F5021305052497D00F
:10499000FF1FE780E0E623A8A18A59C599471706BB
:1049A0000020034686103306F602814513060624CE
:1049B00097C0FF1FE780000F9387018B9C4393876D
:1049C000072423A2F18C170700200347070E0A07CC
:1049D000BA9723A6F18AEFF05F8505239387418C70
:1049E00094439707002083C7370C13972700369707
:1049F000170600001306068610C3138717001377E7
:104A0000F70F0A073697170600001306C68C10C367
:104A100013873700890793F7F70F8A079705002058
:104A2000A384E508B69790C3B240410182809707FE
:104A3000002083C77707170700200347070763F1A4
:104A4000E7021387418C184393861700170600204E
:104A5000A30CD60493962700369708C33E85828020
:104A60009307F00FE5BF1C416388071641777D8FE0
:104A7000B706002089476312D71603574500630E17
:104A80000714411122C419462A849305F00F6905C1
:104A900006C697C0FF1FE780000B05478D476308D8
:104AA000E5121C4481CB5858994763020712185CE1
:104AB000630F07101306C003814517050020130577
:104AC000E5FA97C0FF1FE780E0FD1306C003A2854B
:104AD00017050020130585F997C0FF1FE78000F92F
:104AE00017070020035747F997070020938707F817
:104AF00019E71307001097060020239FE6F6170713
:104B00000020034787F711E7054797060020238613
:104B1000E6F617070020035767F611E76D4797067B
:104B20000020239DE6F417070020034717F511E73F
:104B3000154797060020A382E6F4170700200347D5
:104B400007F411E7054797060020238AE6F21707C6
:104B500000200347D7F219E703C7F70097060020A4
:104B6000A38FE6F017070020034787F111E73547C9
:104B7000970600202386E6F017070020034797F0EA
:104B800019E71307800297060020A38DE6EE1707AA
:104B900000200347F7EE19E71307D002970600201D
:104BA000A380E6EE0347840119E71307C0039706C5
:104BB00000202389E6EC9C5791C782979707002035
:104BC0002398A7EEFD57A38DF1A0993B8147B240F2
:104BD00022443E854101828089473E8582800111C1
:104BE0004EC697090020938969F083A7090006CE75
:104BF00022CC26CA4AC852C4829713090064B3352E
:104C0000250303DA89008146528633052503EFE048
:104C1000F17E97070020938727E9804FAA840145FA
:104C20006306940233858440636E940003A54900B3
:104C300052868146B335A9023305A902EFE0117C03
:104C4000018D26959707002023AC97E6F240624439
:104C5000D2444249B249224A05618280011122CCE4
:104C60000A852E844146970502009385256706CE66
:104C7000EFF04132180806043A94035504FF9707F1
:104C8000002083D747E7F2406244AA9737450F00D8
:104C9000130505243355F50205618280970700202E
:104CA00083D767E551471D45637CF702794719456E
:104CB0006378F7021307200315456373F7021307A0
:104CC000B0041145637EF700130740060D45637974
:104CD000F7001307600909456374F70013B5B70FB0
:104CE0008280011122CC06CE2A842EC6EFF02FE658
:104CF000B245F240818D33A5A50222956244137519
:104D0000F50F05618280011122CC06CE2A842EC6C1
:104D1000EFF0EFE3B245F240818D33A5A502229575
:104D200062444205418105618280011122CC06CE98
:104D30002A842EC6EFF0AFE1B245F240818D33B543
:104D4000A50222956244056182809707002093871F
:104D5000E7D1985739CB411122C426C206C6BE847A
:104D60000297170700200357A7D42A8415CBBA87C8
:104D70006373A700AA87C207C183BA866373E4007E
:104D8000A286C206C182958F5147635BF700DC544F
:104D900091C38297EF00917A97070020239A87D0DA
:104DA000B2402244924441018280828097070020D1
:104DB0009387C7CBDC57011106CEAA8581C72AC6C7
:104DC0008297B245D1C19C410545A5CFDC41B5CB09
:104DD00083D78500BDC783D7A500A5C783C7C500F6
:104DE000ADE3414617050020130545D097C0FF1FCE
:104DF000E780C0C797070020938747CF9C4323AC29
:104E0000F18A9707002083C7F7C78DE793078002D1
:104E100017050020035505CE3305F50237460F0070
:104E20001306062481468145EFE0515D9707002077
:104E3000A38AA7C4170500001305A5DAEFF05FAB3E
:104E40000145F240056182809707002083C767C350
:104E5000139787016187635407049707002023A3F2
:104E600007C697C7FF1F9387270117070020232F27
:104E7000F7C67D579707002023ACE7C6B7873200F7
:104E8000938727A19706002023A6F6C69707002040
:104E9000238407C6B7C7004023A4E726A1BF13F7A2
:104EA000170005CFB7872003938707D01707002087
:104EB0002322F7C4B707C0A817070020232AF7C288
:104EC00097C7FF1F938767FE170700202320F7C2AD
:104ED00097070020238207C231BF61779706002021
:104EE000239AE6C081CB93070032170700202314D2
:104EF000F7C0C9B793072003CDBF011122CC170417
:104F000000201304A4B6084406CE26CA4AC801E904
:104F10000545F2406244D2444249056182805C58B2
:104F2000E5DB185C75D77000854582971844B24759
:104F3000E300F7FE9305E004170500200355C5B311
:104F400097D0FF1FE780C08B17070020232EA7B63E
:104F500061D117060020035626B29305F00F97C0C3
:104F6000FF1FE78020B48144170900201309C9B34B
:104F70009707002083C767B00326090263C1F402C4
:104F8000328597D0FF1FE7800094014597070020E6
:104F900023AC07B29707002023AA07B29DBF97054D
:104FA000002083D565ADB38795020844185C8981DC
:104FB00085043E9508C2029765BF011156C2970A43
:104FC0000020938AAAAA83A78A0022CC4AC84EC688
:104FD00006CE26CA52C45AC0AA892E843289638555
:104FE000072203A74A03630707147D476366A714D4
:104FF00097040020938444AB03AA040263170A0AAF
:105000009565938515E0170500200355E5A697C023
:10501000FF1FE780E07E9707002023A7A7AA2A8624
:10502000630A051083A74A0303A58A009705002099
:1050300083D585A48981829783A78A0003AA040265
:10504000170700202324F7A88947639CF908C14764
:105050006312F40E9705002083D505A2938505FC05
:105060009147B3C5F5028A05D29503C7050093079A
:10507000A005631DF70A83C715006399370B4A859E
:105080002286910597C0FF1FE780409E9C50528565
:10509000639347150145F2406244D2444249B24904
:1050A000224A924A024B05618280D850E38EE7F88B
:1050B0009565938525E0170500200355E59B97C06E
:1050C000FF1FE780E0732A8A35C52A8683A74A0333
:1050D00003A58A009705002083D5059A89818297C8
:1050E000A5B78D47639DF900C1476315F404970583
:1050F000002083D56598938545FDF199B5B7914713
:10510000639AF900631834039705002083D5C59688
:10511000A115E5B7C147639FF900A14763EC87007C
:105120009705002083D54595C115C1BF9C50528578
:105130006397470D294585B71307F006568B6361C2
:10514000A70A130A05FE1947334AEA021707002087
:1051500003578792970A0020938A0A95330AEA0236
:105160003E9A83A74A026395470183A40A029DE4FD
:105170009305E004170500200355059097C0FF1F15
:10518000E7800068AA845DD583274B03970500203C
:1051900083D5858E2A86898152858297914513070A
:1051A000A005898193972500A69783C6070063937E
:1051B000E60483C61700639C360385058A052286AC
:1051C000A6954A8597C0FF1FE780408A83A70A02F9
:1051D000E38297EC268597C0FF1FE780C06E5DBD18
:1051E0001307E007E368A7F4130A05F985B783D529
:1051F000270045BF83A70A02E38E97F2268597C052
:10520000FF1FE780406C3DB7970700209387C78951
:105210008C538DD191479306A0058983139727005E
:105220002E9703460700E317D6F003461700631CCA
:10523000360185078A072286BE954A8597C0FF1FDB
:10524000E780C08281BD83572700C1BF9707002038
:105250009387C781984739C79C5FA9C705476313E0
:10526000E504411122C4170400201304E483105004
:1052700006C60DC6485097F5FF1F83D5E57F898187
:105280008297085097C0FF1FE780E06397070020D0
:1052900023AC07829707002023AA0782B24022444A
:1052A000410182808280011117F7FF1F1307077CDD
:1052B0004EC68329870022CC26CA4AC806CE52C4CD
:1052C00056C2AA842E843289638A09201C5FBA8A56
:1052D00099EB2945F2406244D2444249B249224AFC
:1052E000924A056182805C5BEDD7FD4763E9A70EBA
:1052F00097F9FF1F9389497B83A70902B1CB03A5C7
:105300008A0083A749026395A70689476393F40837
:10531000C147E310F4FC17F5FF1F0355E5759147EE
:10532000130505FC3345F5029317250003A5090273
:105330002286CA853E959307A0052300F500A300A9
:105340009500110597B0FF1FE7804072014559B7DE
:105350009305E00417F5FF1F0355057297C0FF1F63
:10536000E780004A97F7FF1F23A0A77649F995B772
:1053700083A74A0303A6090297F5FF1F83D5C56FCC
:105380008981829783A78A0017F7FF1F2320F7746C
:10539000ADBF8D47639EF400C147E31CF4F217F5DF
:1053A000FF1F0355656D130545FD9377C5FFBDBF11
:1053B0009147639AF400E31E94F017F5FF1F03551D
:1053C000A56B2115DDB7C147E395F4F0A147E3E2F2
:1053D00087F017F5FF1F0355256A4115F9B79307A5
:1053E000F00663EAA706930705FE1947B3C7E7026D
:1053F00017F7FF1F0357476817FAFF1F130ACA6AF8
:10540000B387E702BE9983270A02A9CF83274A02FE
:10541000639A370703250A0291461308A005FD5534
:1054200093D72600C207C183139727002A97034604
:105430000700631D0607834817000356270063957E
:105440009806B306D64063CF860485078A0722866E
:10545000CA853E95C5BD9307E007E3ECA7E6930731
:1054600005F979B79305E00417F5FF1F0355C560EB
:1054700097C0FF1FE780C03897F7FF1F23A6A764D8
:1054800051F581BD83A74A0303260A0297F5FF1F42
:1054900083D5855E89814E85829797F7FF1F23A765
:1054A00037638DBFA300B700B2869DBFB38586006A
:1054B00017F6FF1F0356465C9105130606FCE3FA38
:1054C000C5E0130634001376C60F1106B29623000A
:1054D0000701A30097002311D70085BF97F7FF1F8F
:1054E0009387875C9453BE89A1C203A509029146A4
:1054F0001308A005FD5593D72600C207C183139753
:1055000027002A97034607006316060583481700FD
:105510000356270063989800B306D640E3D786F277
:10552000A300B700B286C1BF8357C70017F5FF1F9E
:105530000345A5549305E0043305F5024205418176
:1055400097C0FF1FE780C02B97F7FF1F23AEA7561A
:1055500049FD41B317F6FF1F0356065297F5FF1F8B
:1055600083C5A551B385C502338686001106E3E2E3
:10557000C5D681BF0145828083C705002300F500A1
:1055800083D72500A300F50083D72500A18323013D
:10559000F50083C74500A301F5001145828023A6CD
:1055A000018C23A4018C828029C1411126C206C628
:1055B00022C4AA8401458DC52E84228541469705C3
:1055C00002009385A5F497B0FF1FE780204A83C7A8
:1055D000040005452306F40083C71400A306F40065
:1055E000B2402244924441018280014582800111EF
:1055F00022CC26CA06CE0947AA8432846381E504F8
:1056000041468147639BC500638FE6006397B60000
:105610000DA841478147638EE600F2406244D244C0
:105620003E85056182808A852285BD3F41468A8507
:1056300019A88A85953F41468A85228531A0E39A3B
:10564000B6FC2E86A285268597B0FF1FE780004B0B
:10565000AA87E1B723A4A18C828023A6A18C828093
:10566000011122CC0354650006CE26CA4AC84EC694
:1056700041C083298500AE842A8803C90900814777
:1056800013178901618763550702B147054563FA1E
:105690008704511442040355280041803387890050
:1056A000A2864E868545EFA01008B337A000850777
:1056B0007D1413556900420405891379F90341806B
:1056C0002380F400A380A40023812401239284007A
:1056D000014719C01387190098C409476383E7007D
:1056E0000145F2406244D2444249B2490561828098
:1056F0000545C5BFC167F917630AF502D94763F7C6
:10570000B702011122CC2EC606CE2A84EF70905F1C
:10571000B2456368B50022856244F24005616F902E
:105720008077F240624405450561828005458280AC
:10573000C167F9176314F5006F70D05C411106C69C
:10574000EF90606411E15D45B24041018280914774
:105750006394F502834705002300F6008347250084
:1057600003471500A207D98F2311F60083473500A0
:1057700001452302F60082801145828039714ED6A0
:1057800056D25AD006DE22DC26DA4AD852D4AA8A69
:105790002E8BB28941EF36C6613F9145EF7010679D
:1057A000AA844D492DC9B246054A238034010544D7
:1057B000630A0B00B68513851400029B05051314BC
:1057C00005014180E20993D9894163D30902C145AA
:1057D0005685EF904069654905E933868400A285C6
:1057E0002685EFA060452A8905E131044204418005
:1057F00091472C085685231CF10026CE231D8100DD
:10580000EF80F0712A8901C963070A00268597C0D5
:10581000FF1FE780400BF25062544A85D254425930
:10582000B259225A925A025B21618280BA84014A9B
:10583000ADBF011122CC26CA4AC84EC606CE2A895F
:105840003284B689253FAA8405E19387C18C9C43A5
:1058500081CF05476317E40003C4090005041374EE
:10586000F40FA2854A858297F24062442685424918
:10587000D244B24905618280AE860147054697054C
:1058800000009385A5CF75B783D705002300F500E9
:1058900083D70500A183A300F5000945828083D743
:1058A00005002300F50083D70500A183A300F500C0
:1058B00083D725002301F50083D72500A183A30109
:1058C000F5001145828083D705002300F50083D7BA
:1058D0000500A183A300F50083D725002301F5006F
:1058E00083D72500A183A301F50083C755002302B8
:1058F000F50083C76500A302F50003D585001905EF
:1059000042054181828083D705002300F50083D7BB
:105910000500A183A300F50083D725002301F5002E
:1059200083D72500A183A301F5001145828083D789
:1059300005002300F50083D70500A183A300F5002F
:1059400083D725002301F50083D72500A183A30178
:10595000F50003D54500110542054181828083C7CA
:1059600005002300F5000545828083D7050041111D
:1059700022C406C62300F50083D705002E84110536
:10598000A183A30EF5FE83D725009505230FF5FE11
:1059900083D7D5FFA183A30FF5FE03C6F5FF97B00C
:1059A000FF1FE780A00C03454400B24022441105CC
:1059B000410182808947639CF500834715000347B6
:1059C00005000145A207D98F2310F60082801145FA
:1059D000828003D70500D94763FEE702011122CC7C
:1059E00006CE2EC62A84EF70F031B24683D7060069
:1059F000636DF50022856244F24001470946970530
:105A000000009385A5E8056195BBF2406244094515
:105A10000561828009458280AE860147114697055F
:105A20000000938505E899BB03C745008947631AC1
:105A3000F702011122CC2A84C84506CEAE86014762
:105A400019C52EC69D45EF60210BB2462A872285D7
:105A50006244F240194697050000938505E7056109
:105A600031BB0945828083C745000947AE866385FF
:105A7000E70041476399E700014721469705000089
:105A80009385E5EEE5B909458280AE86014731464A
:105A900097050000938565E7D5B183C745000947A1
:105AA000AE866385E70041476399E70001474146B9
:105AB000970500009385A5EBD1B1094582800111BE
:105AC00022CC2A84884506CEAE8611C52EC69545C1
:105AD000EF608102B2462A8722856244F24059462D
